{
  "contractName": "SITApreferences2",
  "abi": [
    {
      "inputs": [],
      "stateMutability": "nonpayable",
      "type": "constructor"
    },
    {
      "inputs": [
        {
          "internalType": "address",
          "name": "userAddress",
          "type": "address"
        },
        {
          "internalType": "string",
          "name": "hashKey",
          "type": "string"
        }
      ],
      "name": "PreferencesNotFound",
      "type": "error"
    },
    {
      "inputs": [
        {
          "internalType": "uint256",
          "name": "spatial",
          "type": "uint256"
        },
        {
          "internalType": "uint256",
          "name": "identity",
          "type": "uint256"
        },
        {
          "internalType": "uint256",
          "name": "temporal",
          "type": "uint256"
        },
        {
          "internalType": "uint256",
          "name": "activity",
          "type": "uint256"
        },
        {
          "internalType": "string",
          "name": "key",
          "type": "string"
        }
      ],
      "name": "setPreferences",
      "outputs": [
        {
          "internalType": "bool",
          "name": "success",
          "type": "bool"
        }
      ],
      "stateMutability": "nonpayable",
      "type": "function"
    },
    {
      "inputs": [
        {
          "internalType": "address",
          "name": "userAddress",
          "type": "address"
        },
        {
          "internalType": "string",
          "name": "key",
          "type": "string"
        }
      ],
      "name": "getPreferences",
      "outputs": [
        {
          "internalType": "uint256[4]",
          "name": "preferencesList",
          "type": "uint256[4]"
        }
      ],
      "stateMutability": "nonpayable",
      "type": "function"
    }
  ],
  "bytecode": "0x608060405234801561001057600080fd5b50610c6a806100206000396000f3fe608060405234801561001057600080fd5b50600436106100365760003560e01c80634bd92bce1461003b5780635224ee5b1461006b575b600080fd5b61005560048036038101906100509190610676565b61009b565b6040516100629190610787565b60405180910390f35b610085600480360381019061008091906107ce565b61019e565b6040516100929190610880565b60405180910390f35b6100a36103b9565b6000826040516020016100b69190610915565b60405160208183030381529060405290506100d184846102cf565b1561015957600084826040516020016100eb9291906109bb565b60405160208183030381529060405260405161010791906109e3565b908152602001604051809103902060048060200260405190810160405280929190826004801561014c576020028201915b815481526020019060010190808311610138575b5050505050915050610198565b83836040517f6426971600000000000000000000000000000000000000000000000000000000815260040161018f929190610a53565b60405180910390fd5b92915050565b60008015156101ad33846102cf565b15150361022e57600160003373ffffffffffffffffffffffffffffffffffffffff1673ffffffffffffffffffffffffffffffffffffffff1681526020019081526020016000208290806001815401808255809150506001900390600052602060002001600090919091909150908051906020019061022c9291906103db565b505b6000826040516020016102419190610915565b6040516020818303038152906040529050604051806080016040528088815260200187815260200186815260200185815250600033836040516020016102889291906109bb565b6040516020818303038152906040526040516102a491906109e3565b90815260200160405180910390209060046102c0929190610461565b50600191505095945050505050565b6000805b600160008573ffffffffffffffffffffffffffffffffffffffff1673ffffffffffffffffffffffffffffffffffffffff168152602001908152602001600020805490508110156103b2578280519060200120600160008673ffffffffffffffffffffffffffffffffffffffff1673ffffffffffffffffffffffffffffffffffffffff168152602001908152602001600020828154811061037657610375610a83565b5b9060005260206000200160405161038d9190610ba6565b60405180910390200361039f57600191505b80806103aa90610bec565b9150506102d3565b5092915050565b6040518060800160405280600490602082028036833780820191505090505090565b8280546103e790610ae1565b90600052602060002090601f0160209004810192826104095760008555610450565b82601f1061042257805160ff1916838001178555610450565b82800160010185558215610450579182015b8281111561044f578251825591602001919060010190610434565b5b50905061045d91906104a1565b5090565b8260048101928215610490579160200282015b8281111561048f578251825591602001919060010190610474565b5b50905061049d91906104a1565b5090565b5b808211156104ba5760008160009055506001016104a2565b5090565b6000604051905090565b600080fd5b600080fd5b600073ffffffffffffffffffffffffffffffffffffffff82169050919050565b60006104fd826104d2565b9050919050565b61050d816104f2565b811461051857600080fd5b50565b60008135905061052a81610504565b92915050565b600080fd5b600080fd5b6000601f19601f8301169050919050565b7f4e487b7100000000000000000000000000000000000000000000000000000000600052604160045260246000fd5b6105838261053a565b810181811067ffffffffffffffff821117156105a2576105a161054b565b5b80604052505050565b60006105b56104be565b90506105c1828261057a565b919050565b600067ffffffffffffffff8211156105e1576105e061054b565b5b6105ea8261053a565b9050602081019050919050565b82818337600083830152505050565b6000610619610614846105c6565b6105ab565b90508281526020810184848401111561063557610634610535565b5b6106408482856105f7565b509392505050565b600082601f83011261065d5761065c610530565b5b813561066d848260208601610606565b91505092915050565b6000806040838503121561068d5761068c6104c8565b5b600061069b8582860161051b565b925050602083013567ffffffffffffffff8111156106bc576106bb6104cd565b5b6106c885828601610648565b9150509250929050565b600060049050919050565b600081905092915050565b6000819050919050565b6000819050919050565b610705816106f2565b82525050565b600061071783836106fc565b60208301905092915050565b6000602082019050919050565b610739816106d2565b61074381846106dd565b925061074e826106e8565b8060005b8381101561077f578151610766878261070b565b965061077183610723565b925050600181019050610752565b505050505050565b600060808201905061079c6000830184610730565b92915050565b6107ab816106f2565b81146107b657600080fd5b50565b6000813590506107c8816107a2565b92915050565b600080600080600060a086880312156107ea576107e96104c8565b5b60006107f8888289016107b9565b9550506020610809888289016107b9565b945050604061081a888289016107b9565b935050606061082b888289016107b9565b925050608086013567ffffffffffffffff81111561084c5761084b6104cd565b5b61085888828901610648565b9150509295509295909350565b60008115159050919050565b61087a81610865565b82525050565b60006020820190506108956000830184610871565b92915050565b600081519050919050565b600081905092915050565b60005b838110156108cf5780820151818401526020810190506108b4565b838111156108de576000848401525b50505050565b60006108ef8261089b565b6108f981856108a6565b93506109098185602086016108b1565b80840191505092915050565b600061092182846108e4565b915081905092915050565b60008160601b9050919050565b60006109448261092c565b9050919050565b600061095682610939565b9050919050565b61096e610969826104f2565b61094b565b82525050565b600081519050919050565b600081905092915050565b600061099582610974565b61099f818561097f565b93506109af8185602086016108b1565b80840191505092915050565b60006109c7828561095d565b6014820191506109d7828461098a565b91508190509392505050565b60006109ef828461098a565b915081905092915050565b610a03816104f2565b82525050565b600082825260208201905092915050565b6000610a258261089b565b610a2f8185610a09565b9350610a3f8185602086016108b1565b610a488161053a565b840191505092915050565b6000604082019050610a6860008301856109fa565b8181036020830152610a7a8184610a1a565b90509392505050565b7f4e487b7100000000000000000000000000000000000000000000000000000000600052603260045260246000fd5b7f4e487b7100000000000000000000000000000000000000000000000000000000600052602260045260246000fd5b60006002820490506001821680610af957607f821691505b602082108103610b0c57610b0b610ab2565b5b50919050565b60008190508160005260206000209050919050565b60008154610b3481610ae1565b610b3e818661097f565b94506001821660008114610b595760018114610b6a57610b9d565b60ff19831686528186019350610b9d565b610b7385610b12565b60005b83811015610b9557815481890152600182019150602081019050610b76565b838801955050505b50505092915050565b6000610bb28284610b27565b915081905092915050565b7f4e487b7100000000000000000000000000000000000000000000000000000000600052601160045260246000fd5b6000610bf7826106f2565b91507fffffffffffffffffffffffffffffffffffffffffffffffffffffffffffffffff8203610c2957610c28610bbd565b5b60018201905091905056fea2646970667358221220f8172214d48c80cceab68bcedb46e5bbea592a09087d3612ba02df6ee2422ea664736f6c634300080d0033",
  "immutableReferences": {},
  "source": "pragma solidity ^0.8.4;\r\n \r\n/// Preferences not found for this address + H(key) combination.\r\n/// @param userAddress Address used.\r\n/// @param hashKey Hashed key used.\r\nerror PreferencesNotFound(address userAddress, string hashKey);\r\n \r\ncontract SITApreferences2{\r\n    mapping(bytes => uint[4]) private userpreferences; // Mapping bytes (address + key) as you cant use struct or array as mapping keys\r\n    // Need to use bytes to be able to concatenate the address and key, should change later to a particular size bytes when we know address and key combined size\r\n\r\n    mapping(address => string[]) private usedKeys; // String array of the H(key) in use for a user\r\n\r\n    mapping(bytes => address[]) private approvedAddresses; // Mapping linking address + H(key) to approved addresses\r\n\r\n    constructor(){}\r\n\r\n    function setPreferences(uint spatial, uint identity, uint temporal, uint activity, string memory key) public returns(bool success){\r\n      // Require statement here to ensure all dimensions are 0-4\r\n\r\n      if (keyInUse(msg.sender,key) == false){ // If the key isn't already in use it needs to be added to the array in the usedKey mapping\r\n        usedKeys[msg.sender].push(key);\r\n      }\r\n\r\n      bytes memory keyBytes = abi.encodePacked(key); // Convert string parameter for the secret key to bytes\r\n      userpreferences[abi.encodePacked(msg.sender, keyBytes)] = [spatial,identity,temporal,activity]; // Store the preference array mapped under address + secret key as the mapping key\r\n      return(true); // Need to return upon success of setting, but need require statement\r\n    }\r\n\r\n    function getPreferences(address userAddress,string memory key) public returns(uint[4] memory preferencesList){\r\n      bytes memory keyBytes = abi.encodePacked(key); // Convert string parameter for the secret key to bytes\r\n\r\n      if(keyInUse(userAddress, key)){\r\n        return(userpreferences[abi.encodePacked(userAddress, keyBytes)]);\r\n      }\r\n      else{\r\n        revert PreferencesNotFound(userAddress, key);\r\n      }\r\n\r\n    }\r\n\r\n    function keyInUse(address userAddress, string memory keyHash) private returns(bool keyExists){ // Helper function to check if a key already exists in keysUsed\r\n      keyExists = false; // Boolean value for whether the key exists yet or not\r\n\r\n      for(uint i; i < usedKeys[userAddress].length; i++){ // Iterate through the user's keys\r\n        if (keccak256(bytes(usedKeys[userAddress][i])) == keccak256(bytes(keyHash))){ // Compare the key in usedKeys array and the key the user has entered\r\n          keyExists = true; \r\n        }\r\n      }\r\n\r\n      return(keyExists);\r\n    }\r\n\r\n}",
  "sourcePath": "C:\\Users\\joelg\\Desktop\\react\\contracts\\SITApreferences2.sol",
  "compiler": {
    "name": "solc",
    "version": "0.8.13+commit.abaa5c0e.Emscripten.clang"
  },
  "schemaVersion": "3.4.4",
  "updatedAt": "2022-03-27T13:41:58.910Z",
  "networkType": "ethereum",
  "devdoc": {
    "errors": {
      "PreferencesNotFound(address,string)": [
        {
          "params": {
            "hashKey": "Hashed key used.",
            "userAddress": "Address used."
          }
        }
      ]
    },
    "kind": "dev",
    "methods": {},
    "version": 1
  },
  "userdoc": {
    "errors": {
      "PreferencesNotFound(address,string)": [
        {
          "notice": "Preferences not found for this address + H(key) combination."
        }
      ]
    },
    "kind": "user",
    "methods": {},
    "version": 1
  }
}