{
  "contractName": "SITApreferences2",
  "abi": [
    {
      "inputs": [],
      "stateMutability": "nonpayable",
      "type": "constructor"
    },
    {
      "inputs": [
        {
          "internalType": "address",
          "name": "userAddress",
          "type": "address"
        },
        {
          "internalType": "string",
          "name": "hashKey",
          "type": "string"
        }
      ],
      "name": "PreferencesNotFound",
      "type": "error"
    },
    {
      "inputs": [
        {
          "internalType": "string",
          "name": "preferences",
          "type": "string"
        },
        {
          "internalType": "string",
          "name": "key",
          "type": "string"
        }
      ],
      "name": "setPreferences",
      "outputs": [
        {
          "internalType": "bool",
          "name": "success",
          "type": "bool"
        }
      ],
      "stateMutability": "nonpayable",
      "type": "function"
    },
    {
      "inputs": [
        {
          "internalType": "address",
          "name": "userAddress",
          "type": "address"
        },
        {
          "internalType": "string",
          "name": "key",
          "type": "string"
        }
      ],
      "name": "getPreferences",
      "outputs": [
        {
          "internalType": "string",
          "name": "preferences",
          "type": "string"
        }
      ],
      "stateMutability": "nonpayable",
      "type": "function"
    }
  ],
  "bytecode": "0x608060405234801561001057600080fd5b50610b42806100206000396000f3fe608060405234801561001057600080fd5b50600436106100365760003560e01c806320103dde1461003b5780634bd92bce1461006b575b600080fd5b610055600480360381019061005091906105df565b61009b565b6040516100629190610672565b60405180910390f35b610085600480360381019061008091906106eb565b6101ae565b60405161009291906107cf565b60405180910390f35b60008015156100aa33846102f8565b15150361012b57600160003373ffffffffffffffffffffffffffffffffffffffff1673ffffffffffffffffffffffffffffffffffffffff168152602001908152602001600020829080600181540180825580915050600190039060005260206000200160009091909190915090805190602001906101299291906103e2565b505b60008260405160200161013e919061082d565b604051602081830303815290604052905083600033836040516020016101659291906108d3565b60405160208183030381529060405260405161018191906108fb565b908152602001604051809103902090805190602001906101a29291906103e2565b50600191505092915050565b60606000826040516020016101c3919061082d565b60405160208183030381529060405290506101de84846102f8565b156102b357600084826040516020016101f89291906108d3565b60405160208183030381529060405260405161021491906108fb565b9081526020016040518091039020805461022d90610941565b80601f016020809104026020016040519081016040528092919081815260200182805461025990610941565b80156102a65780601f1061027b576101008083540402835291602001916102a6565b820191906000526020600020905b81548152906001019060200180831161028957829003601f168201915b50505050509150506102f2565b83836040517f642697160000000000000000000000000000000000000000000000000000000081526004016102e9929190610981565b60405180910390fd5b92915050565b6000805b600160008573ffffffffffffffffffffffffffffffffffffffff1673ffffffffffffffffffffffffffffffffffffffff168152602001908152602001600020805490508110156103db578280519060200120600160008673ffffffffffffffffffffffffffffffffffffffff1673ffffffffffffffffffffffffffffffffffffffff168152602001908152602001600020828154811061039f5761039e6109b1565b5b906000526020600020016040516103b69190610a74565b6040518091039020036103c857600191505b80806103d390610ac4565b9150506102fc565b5092915050565b8280546103ee90610941565b90600052602060002090601f0160209004810192826104105760008555610457565b82601f1061042957805160ff1916838001178555610457565b82800160010185558215610457579182015b8281111561045657825182559160200191906001019061043b565b5b5090506104649190610468565b5090565b5b80821115610481576000816000905550600101610469565b5090565b6000604051905090565b600080fd5b600080fd5b600080fd5b600080fd5b6000601f19601f8301169050919050565b7f4e487b7100000000000000000000000000000000000000000000000000000000600052604160045260246000fd5b6104ec826104a3565b810181811067ffffffffffffffff8211171561050b5761050a6104b4565b5b80604052505050565b600061051e610485565b905061052a82826104e3565b919050565b600067ffffffffffffffff82111561054a576105496104b4565b5b610553826104a3565b9050602081019050919050565b82818337600083830152505050565b600061058261057d8461052f565b610514565b90508281526020810184848401111561059e5761059d61049e565b5b6105a9848285610560565b509392505050565b600082601f8301126105c6576105c5610499565b5b81356105d684826020860161056f565b91505092915050565b600080604083850312156105f6576105f561048f565b5b600083013567ffffffffffffffff81111561061457610613610494565b5b610620858286016105b1565b925050602083013567ffffffffffffffff81111561064157610640610494565b5b61064d858286016105b1565b9150509250929050565b60008115159050919050565b61066c81610657565b82525050565b60006020820190506106876000830184610663565b92915050565b600073ffffffffffffffffffffffffffffffffffffffff82169050919050565b60006106b88261068d565b9050919050565b6106c8816106ad565b81146106d357600080fd5b50565b6000813590506106e5816106bf565b92915050565b600080604083850312156107025761070161048f565b5b6000610710858286016106d6565b925050602083013567ffffffffffffffff81111561073157610730610494565b5b61073d858286016105b1565b9150509250929050565b600081519050919050565b600082825260208201905092915050565b60005b83811015610781578082015181840152602081019050610766565b83811115610790576000848401525b50505050565b60006107a182610747565b6107ab8185610752565b93506107bb818560208601610763565b6107c4816104a3565b840191505092915050565b600060208201905081810360008301526107e98184610796565b905092915050565b600081905092915050565b600061080782610747565b61081181856107f1565b9350610821818560208601610763565b80840191505092915050565b600061083982846107fc565b915081905092915050565b60008160601b9050919050565b600061085c82610844565b9050919050565b600061086e82610851565b9050919050565b610886610881826106ad565b610863565b82525050565b600081519050919050565b600081905092915050565b60006108ad8261088c565b6108b78185610897565b93506108c7818560208601610763565b80840191505092915050565b60006108df8285610875565b6014820191506108ef82846108a2565b91508190509392505050565b600061090782846108a2565b915081905092915050565b7f4e487b7100000000000000000000000000000000000000000000000000000000600052602260045260246000fd5b6000600282049050600182168061095957607f821691505b60208210810361096c5761096b610912565b5b50919050565b61097b816106ad565b82525050565b60006040820190506109966000830185610972565b81810360208301526109a88184610796565b90509392505050565b7f4e487b7100000000000000000000000000000000000000000000000000000000600052603260045260246000fd5b60008190508160005260206000209050919050565b60008154610a0281610941565b610a0c8186610897565b94506001821660008114610a275760018114610a3857610a6b565b60ff19831686528186019350610a6b565b610a41856109e0565b60005b83811015610a6357815481890152600182019150602081019050610a44565b838801955050505b50505092915050565b6000610a8082846109f5565b915081905092915050565b7f4e487b7100000000000000000000000000000000000000000000000000000000600052601160045260246000fd5b6000819050919050565b6000610acf82610aba565b91507fffffffffffffffffffffffffffffffffffffffffffffffffffffffffffffffff8203610b0157610b00610a8b565b5b60018201905091905056fea2646970667358221220da1860e5e29a6f8c89bc12c60ccf679e9f4bbd60f26e6558cb65af70e876545064736f6c634300080d0033",
  "immutableReferences": {},
  "source": "pragma solidity ^0.8.4;\r\n \r\n/// Preferences not found for this address + H(key) combination.\r\n/// @param userAddress Address used.\r\n/// @param hashKey Hashed key used.\r\nerror PreferencesNotFound(address userAddress, string hashKey);\r\n \r\ncontract SITApreferences2{\r\n    mapping(bytes => string) private userpreferences; // Mapping bytes (address + key) as you cant use struct or array as mapping keys\r\n    // Need to use bytes to be able to concatenate the address and key, should change later to a particular size bytes when we know address and key combined size\r\n\r\n    mapping(address => string[]) private usedKeys; // String array of the H(key) in use for a user\r\n\r\n    mapping(bytes => address[]) private approvedAddresses; // Mapping linking address + H(key) to approved addresses\r\n\r\n    constructor(){}\r\n\r\n    function setPreferences(string memory preferences, string memory key) public returns(bool success){\r\n      // Require statement here to ensure all dimensions are 0-4\r\n\r\n      if (keyInUse(msg.sender,key) == false){ // If the key isn't already in use it needs to be added to the array in the usedKey mapping\r\n        usedKeys[msg.sender].push(key);\r\n      }\r\n\r\n      bytes memory keyBytes = abi.encodePacked(key); // Convert string parameter for the secret key to bytes\r\n      userpreferences[abi.encodePacked(msg.sender, keyBytes)] = preferences; // Store the preference array mapped under address + secret key as the mapping key\r\n      return(true); // Need to return upon success of setting, but need require statement\r\n    }\r\n\r\n    function getPreferences(address userAddress,string memory key) public returns(string memory preferences){\r\n      bytes memory keyBytes = abi.encodePacked(key); // Convert string parameter for the secret key to bytes\r\n\r\n      if(keyInUse(userAddress, key)){\r\n        return(userpreferences[abi.encodePacked(userAddress, keyBytes)]);\r\n      }\r\n      else{\r\n        revert PreferencesNotFound(userAddress, key);\r\n      }\r\n\r\n    }\r\n\r\n    function keyInUse(address userAddress, string memory keyHash) private returns(bool keyExists){ // Helper function to check if a key already exists in keysUsed\r\n      keyExists = false; // Boolean value for whether the key exists yet or not\r\n\r\n      for(uint i; i < usedKeys[userAddress].length; i++){ // Iterate through the user's keys\r\n        if (keccak256(bytes(usedKeys[userAddress][i])) == keccak256(bytes(keyHash))){ // Compare the key in usedKeys array and the key the user has entered\r\n          keyExists = true; \r\n        }\r\n      }\r\n\r\n      return(keyExists);\r\n    }\r\n\r\n}",
  "sourcePath": "C:\\Users\\joelg\\Desktop\\react\\contracts\\SITApreferences2.sol",
  "compiler": {
    "name": "solc",
    "version": "0.8.13+commit.abaa5c0e.Emscripten.clang"
  },
  "schemaVersion": "3.4.4",
  "updatedAt": "2022-03-27T15:18:57.661Z",
  "networkType": "ethereum",
  "devdoc": {
    "errors": {
      "PreferencesNotFound(address,string)": [
        {
          "params": {
            "hashKey": "Hashed key used.",
            "userAddress": "Address used."
          }
        }
      ]
    },
    "kind": "dev",
    "methods": {},
    "version": 1
  },
  "userdoc": {
    "errors": {
      "PreferencesNotFound(address,string)": [
        {
          "notice": "Preferences not found for this address + H(key) combination."
        }
      ]
    },
    "kind": "user",
    "methods": {},
    "version": 1
  }
}