{
  "contractName": "SITApreferences2",
  "abi": [
    {
      "inputs": [],
      "stateMutability": "nonpayable",
      "type": "constructor"
    },
    {
      "inputs": [
        {
          "internalType": "address",
          "name": "approvedAddress",
          "type": "address"
        },
        {
          "internalType": "address",
          "name": "userAddress",
          "type": "address"
        },
        {
          "internalType": "string",
          "name": "hashKey",
          "type": "string"
        }
      ],
      "name": "ApprovedAddressNotFound",
      "type": "error"
    },
    {
      "inputs": [
        {
          "internalType": "address",
          "name": "userAddress",
          "type": "address"
        },
        {
          "internalType": "string",
          "name": "hashKey",
          "type": "string"
        }
      ],
      "name": "CantRemoveOwnAddress",
      "type": "error"
    },
    {
      "inputs": [
        {
          "internalType": "address",
          "name": "userAddress",
          "type": "address"
        },
        {
          "internalType": "string",
          "name": "hashKey",
          "type": "string"
        }
      ],
      "name": "KeyNotInUse",
      "type": "error"
    },
    {
      "inputs": [
        {
          "internalType": "address",
          "name": "userAddress",
          "type": "address"
        },
        {
          "internalType": "string",
          "name": "hashKey",
          "type": "string"
        }
      ],
      "name": "PreferencesNotFound",
      "type": "error"
    },
    {
      "inputs": [
        {
          "internalType": "string",
          "name": "preferences",
          "type": "string"
        },
        {
          "internalType": "string",
          "name": "key",
          "type": "string"
        }
      ],
      "name": "setPreferences",
      "outputs": [
        {
          "internalType": "bool",
          "name": "success",
          "type": "bool"
        }
      ],
      "stateMutability": "nonpayable",
      "type": "function"
    },
    {
      "inputs": [
        {
          "internalType": "address",
          "name": "userAddress",
          "type": "address"
        },
        {
          "internalType": "string",
          "name": "key",
          "type": "string"
        }
      ],
      "name": "getPreferences",
      "outputs": [
        {
          "internalType": "string",
          "name": "preferences",
          "type": "string"
        }
      ],
      "stateMutability": "view",
      "type": "function",
      "constant": true
    },
    {
      "inputs": [
        {
          "internalType": "string",
          "name": "keyHash",
          "type": "string"
        }
      ],
      "name": "deletePreferences",
      "outputs": [
        {
          "internalType": "bool",
          "name": "success",
          "type": "bool"
        }
      ],
      "stateMutability": "nonpayable",
      "type": "function"
    },
    {
      "inputs": [
        {
          "internalType": "address",
          "name": "approvedAddress",
          "type": "address"
        },
        {
          "internalType": "string",
          "name": "keyHash",
          "type": "string"
        }
      ],
      "name": "addApprovedAddress",
      "outputs": [
        {
          "internalType": "bool",
          "name": "success",
          "type": "bool"
        }
      ],
      "stateMutability": "nonpayable",
      "type": "function"
    },
    {
      "inputs": [
        {
          "internalType": "string",
          "name": "keyHash",
          "type": "string"
        }
      ],
      "name": "getApprovedAddresses",
      "outputs": [
        {
          "internalType": "address[]",
          "name": "addresses",
          "type": "address[]"
        }
      ],
      "stateMutability": "view",
      "type": "function",
      "constant": true
    },
    {
      "inputs": [
        {
          "internalType": "address",
          "name": "removeAddress",
          "type": "address"
        },
        {
          "internalType": "string",
          "name": "keyHash",
          "type": "string"
        }
      ],
      "name": "removeApprovedAddress",
      "outputs": [
        {
          "internalType": "bool",
          "name": "success",
          "type": "bool"
        }
      ],
      "stateMutability": "nonpayable",
      "type": "function"
    },
    {
      "inputs": [],
      "name": "deleteAllPreferences",
      "outputs": [],
      "stateMutability": "nonpayable",
      "type": "function"
    }
  ],
  "bytecode": "0x608060405234801561001057600080fd5b50611e36806100206000396000f3fe608060405234801561001057600080fd5b506004361061007d5760003560e01c80634bd92bce1161005b5780634bd92bce14610112578063c056047614610142578063d996d86a14610172578063ec53f6c21461017c5761007d565b806303a74a9c1461008257806315bd3816146100b257806320103dde146100e2575b600080fd5b61009c6004803603810190610097919061168f565b6101ac565b6040516100a99190611706565b60405180910390f35b6100cc60048036038101906100c7919061168f565b6105c0565b6040516100d99190611706565b60405180910390f35b6100fc60048036038101906100f79190611721565b6106fd565b6040516101099190611706565b60405180910390f35b61012c6004803603810190610127919061168f565b6108d3565b6040516101399190611821565b60405180910390f35b61015c60048036038101906101579190611843565b610a6e565b6040516101699190611706565b60405180910390f35b61017a610df4565b005b61019660048036038101906101919190611843565b610f4e565b6040516101a3919061194a565b60405180910390f35b60003373ffffffffffffffffffffffffffffffffffffffff168373ffffffffffffffffffffffffffffffffffffffff16036102205733826040517fc0e65c2000000000000000000000000000000000000000000000000000000000815260040161021792919061197b565b60405180910390fd5b61022a3383611093565b1561057b5760008260405160200161024291906119e7565b604051602081830303815290604052905060006002338360405160200161026a929190611a8d565b6040516020818303038152906040526040516102869190611ab5565b908152602001604051809103902080548060200260200160405190810160405280929190818152602001828054801561031457602002820191906000526020600020905b8160009054906101000a900473ffffffffffffffffffffffffffffffffffffffff1673ffffffffffffffffffffffffffffffffffffffff16815260200190600101908083116102ca575b5050505050905060005b8151811015610539578573ffffffffffffffffffffffffffffffffffffffff1682828151811061035157610350611acc565b5b602002602001015173ffffffffffffffffffffffffffffffffffffffff16036105265760023384604051602001610389929190611a8d565b6040516020818303038152906040526040516103a59190611ab5565b9081526020016040518091039020600183516103c19190611b34565b815481106103d2576103d1611acc565b5b9060005260206000200160009054906101000a900473ffffffffffffffffffffffffffffffffffffffff1660023385604051602001610412929190611a8d565b60405160208183030381529060405260405161042e9190611ab5565b9081526020016040518091039020828154811061044e5761044d611acc565b5b9060005260206000200160006101000a81548173ffffffffffffffffffffffffffffffffffffffff021916908373ffffffffffffffffffffffffffffffffffffffff160217905550600233846040516020016104ab929190611a8d565b6040516020818303038152906040526040516104c79190611ab5565b90815260200160405180910390208054806104e5576104e4611b68565b5b6001900381819060005260206000200160006101000a81549073ffffffffffffffffffffffffffffffffffffffff02191690559055600193505050506105ba565b808061053190611b97565b91505061031e565b508433856040517f9752411700000000000000000000000000000000000000000000000000000000815260040161057293929190611bdf565b60405180910390fd5b33826040517f34fa87f70000000000000000000000000000000000000000000000000000000081526004016105b192919061197b565b60405180910390fd5b92915050565b60006105cc3383611093565b156106b8576105dc33838561117d565b156105ea57600190506106f7565b6000826040516020016105fd91906119e7565b604051602081830303815290604052905060023382604051602001610623929190611a8d565b60405160208183030381529060405260405161063f9190611ab5565b9081526020016040518091039020849080600181540180825580915050600190039060005260206000200160009091909190916101000a81548173ffffffffffffffffffffffffffffffffffffffff021916908373ffffffffffffffffffffffffffffffffffffffff16021790555060019150506106f7565b33826040517f34fa87f70000000000000000000000000000000000000000000000000000000081526004016106ee92919061197b565b60405180910390fd5b92915050565b6000604051806020016040528060008152508051906020012083805190602001200361075e576040517f08c379a000000000000000000000000000000000000000000000000000000000815260040161075590611c69565b60405180910390fd5b60405180602001604052806000815250805190602001208280519060200120036107bd576040517f08c379a00000000000000000000000000000000000000000000000000000000081526004016107b490611cd5565b60405180910390fd5b6107c73383611093565b61085057600160003373ffffffffffffffffffffffffffffffffffffffff1673ffffffffffffffffffffffffffffffffffffffff16815260200190815260200160002082908060018154018082558091505060019003906000526020600020016000909190919091509080519060200190610843929190611346565b5061084e33836105c0565b505b60008260405160200161086391906119e7565b6040516020818303038152906040529050836000338360405160200161088a929190611a8d565b6040516020818303038152906040526040516108a69190611ab5565b908152602001604051809103902090805190602001906108c7929190611346565b50600191505092915050565b60606000826040516020016108e891906119e7565b604051602081830303815290604052905061090484843361117d565b15610a27576109138484611093565b156109e8576000848260405160200161092d929190611a8d565b6040516020818303038152906040526040516109499190611ab5565b9081526020016040518091039020805461096290611d24565b80601f016020809104026020016040519081016040528092919081815260200182805461098e90611d24565b80156109db5780601f106109b0576101008083540402835291602001916109db565b820191906000526020600020905b8154815290600101906020018083116109be57829003601f168201915b5050505050915050610a68565b83836040517f64269716000000000000000000000000000000000000000000000000000000008152600401610a1e92919061197b565b60405180910390fd5b3384846040517f97524117000000000000000000000000000000000000000000000000000000008152600401610a5f93929190611bdf565b60405180910390fd5b92915050565b60008082604051602001610a8291906119e7565b6040516020818303038152906040529050610a9d3384611093565b15610dae5760023382604051602001610ab7929190611a8d565b604051602081830303815290604052604051610ad39190611ab5565b90815260200160405180910390206000610aed91906113cc565b60003382604051602001610b02929190611a8d565b604051602081830303815290604052604051610b1e9190611ab5565b90815260200160405180910390206000610b3891906113ed565b60005b600160003373ffffffffffffffffffffffffffffffffffffffff1673ffffffffffffffffffffffffffffffffffffffff16815260200190815260200160002080549050811015610da8578380519060200120600160003373ffffffffffffffffffffffffffffffffffffffff1673ffffffffffffffffffffffffffffffffffffffff1681526020019081526020016000208281548110610bde57610bdd611acc565b5b90600052602060002001604051610bf59190611de9565b604051809103902003610d9557600160003373ffffffffffffffffffffffffffffffffffffffff1673ffffffffffffffffffffffffffffffffffffffff16815260200190815260200160002060018060003373ffffffffffffffffffffffffffffffffffffffff1673ffffffffffffffffffffffffffffffffffffffff16815260200190815260200160002080549050610c8f9190611b34565b81548110610ca057610c9f611acc565b5b90600052602060002001600160003373ffffffffffffffffffffffffffffffffffffffff1673ffffffffffffffffffffffffffffffffffffffff1681526020019081526020016000208281548110610cfb57610cfa611acc565b5b90600052602060002001908054610d1190611d24565b610d1c92919061142d565b50600160003373ffffffffffffffffffffffffffffffffffffffff1673ffffffffffffffffffffffffffffffffffffffff168152602001908152602001600020805480610d6c57610d6b611b68565b5b600190038181906000526020600020016000610d8891906113ed565b9055600192505050610def565b8080610da090611b97565b915050610b3b565b50610ded565b33836040517f34fa87f7000000000000000000000000000000000000000000000000000000008152600401610de492919061197b565b60405180910390fd5b505b919050565b6000600160003373ffffffffffffffffffffffffffffffffffffffff1673ffffffffffffffffffffffffffffffffffffffff168152602001908152602001600020805480602002602001604051908101604052809291908181526020016000905b82821015610f01578382906000526020600020018054610e7490611d24565b80601f0160208091040260200160405190810160405280929190818152602001828054610ea090611d24565b8015610eed5780601f10610ec257610100808354040283529160200191610eed565b820191906000526020600020905b815481529060010190602001808311610ed057829003601f168201915b505050505081526020019060010190610e55565b50505050905060005b8151811015610f4a57610f36828281518110610f2957610f28611acc565b5b6020026020010151610a6e565b508080610f4290611b97565b915050610f0a565b5050565b6060610f5a3383611093565b1561104f57600082604051602001610f7291906119e7565b604051602081830303815290604052905060023382604051602001610f98929190611a8d565b604051602081830303815290604052604051610fb49190611ab5565b908152602001604051809103902080548060200260200160405190810160405280929190818152602001828054801561104257602002820191906000526020600020905b8160009054906101000a900473ffffffffffffffffffffffffffffffffffffffff1673ffffffffffffffffffffffffffffffffffffffff1681526020019060010190808311610ff8575b505050505091505061108e565b33826040517f34fa87f700000000000000000000000000000000000000000000000000000000815260040161108592919061197b565b60405180910390fd5b919050565b6000805b600160008573ffffffffffffffffffffffffffffffffffffffff1673ffffffffffffffffffffffffffffffffffffffff16815260200190815260200160002080549050811015611176578280519060200120600160008673ffffffffffffffffffffffffffffffffffffffff1673ffffffffffffffffffffffffffffffffffffffff168152602001908152602001600020828154811061113a57611139611acc565b5b906000526020600020016040516111519190611de9565b60405180910390200361116357600191505b808061116e90611b97565b915050611097565b5092915050565b60006111898484611093565b156112fe576000836040516020016111a191906119e7565b60405160208183030381529060405290506000600286836040516020016111c9929190611a8d565b6040516020818303038152906040526040516111e59190611ab5565b908152602001604051809103902080548060200260200160405190810160405280929190818152602001828054801561127357602002820191906000526020600020905b8160009054906101000a900473ffffffffffffffffffffffffffffffffffffffff1673ffffffffffffffffffffffffffffffffffffffff1681526020019060010190808311611229575b5050505050905060005b81518110156112f2578473ffffffffffffffffffffffffffffffffffffffff168282815181106112b0576112af611acc565b5b602002602001015173ffffffffffffffffffffffffffffffffffffffff16036112df576001935050505061133f565b80806112ea90611b97565b91505061127d565b5060009250505061133f565b8184846040517f9752411700000000000000000000000000000000000000000000000000000000815260040161133693929190611bdf565b60405180910390fd5b9392505050565b82805461135290611d24565b90600052602060002090601f01602090048101928261137457600085556113bb565b82601f1061138d57805160ff19168380011785556113bb565b828001600101855582156113bb579182015b828111156113ba57825182559160200191906001019061139f565b5b5090506113c891906114ba565b5090565b50805460008255906000526020600020908101906113ea91906114ba565b50565b5080546113f990611d24565b6000825580601f1061140b575061142a565b601f01602090049060005260206000209081019061142991906114ba565b5b50565b82805461143990611d24565b90600052602060002090601f01602090048101928261145b57600085556114a9565b82601f1061146c57805485556114a9565b828001600101855582156114a957600052602060002091601f016020900482015b828111156114a857825482559160010191906001019061148d565b5b5090506114b691906114ba565b5090565b5b808211156114d35760008160009055506001016114bb565b5090565b6000604051905090565b600080fd5b600080fd5b600073ffffffffffffffffffffffffffffffffffffffff82169050919050565b6000611516826114eb565b9050919050565b6115268161150b565b811461153157600080fd5b50565b6000813590506115438161151d565b92915050565b600080fd5b600080fd5b6000601f19601f8301169050919050565b7f4e487b7100000000000000000000000000000000000000000000000000000000600052604160045260246000fd5b61159c82611553565b810181811067ffffffffffffffff821117156115bb576115ba611564565b5b80604052505050565b60006115ce6114d7565b90506115da8282611593565b919050565b600067ffffffffffffffff8211156115fa576115f9611564565b5b61160382611553565b9050602081019050919050565b82818337600083830152505050565b600061163261162d846115df565b6115c4565b90508281526020810184848401111561164e5761164d61154e565b5b611659848285611610565b509392505050565b600082601f83011261167657611675611549565b5b813561168684826020860161161f565b91505092915050565b600080604083850312156116a6576116a56114e1565b5b60006116b485828601611534565b925050602083013567ffffffffffffffff8111156116d5576116d46114e6565b5b6116e185828601611661565b9150509250929050565b60008115159050919050565b611700816116eb565b82525050565b600060208201905061171b60008301846116f7565b92915050565b60008060408385031215611738576117376114e1565b5b600083013567ffffffffffffffff811115611756576117556114e6565b5b61176285828601611661565b925050602083013567ffffffffffffffff811115611783576117826114e6565b5b61178f85828601611661565b9150509250929050565b600081519050919050565b600082825260208201905092915050565b60005b838110156117d35780820151818401526020810190506117b8565b838111156117e2576000848401525b50505050565b60006117f382611799565b6117fd81856117a4565b935061180d8185602086016117b5565b61181681611553565b840191505092915050565b6000602082019050818103600083015261183b81846117e8565b905092915050565b600060208284031215611859576118586114e1565b5b600082013567ffffffffffffffff811115611877576118766114e6565b5b61188384828501611661565b91505092915050565b600081519050919050565b600082825260208201905092915050565b6000819050602082019050919050565b6118c18161150b565b82525050565b60006118d383836118b8565b60208301905092915050565b6000602082019050919050565b60006118f78261188c565b6119018185611897565b935061190c836118a8565b8060005b8381101561193d57815161192488826118c7565b975061192f836118df565b925050600181019050611910565b5085935050505092915050565b6000602082019050818103600083015261196481846118ec565b905092915050565b6119758161150b565b82525050565b6000604082019050611990600083018561196c565b81810360208301526119a281846117e8565b90509392505050565b600081905092915050565b60006119c182611799565b6119cb81856119ab565b93506119db8185602086016117b5565b80840191505092915050565b60006119f382846119b6565b915081905092915050565b60008160601b9050919050565b6000611a16826119fe565b9050919050565b6000611a2882611a0b565b9050919050565b611a40611a3b8261150b565b611a1d565b82525050565b600081519050919050565b600081905092915050565b6000611a6782611a46565b611a718185611a51565b9350611a818185602086016117b5565b80840191505092915050565b6000611a998285611a2f565b601482019150611aa98284611a5c565b91508190509392505050565b6000611ac18284611a5c565b915081905092915050565b7f4e487b7100000000000000000000000000000000000000000000000000000000600052603260045260246000fd5b6000819050919050565b7f4e487b7100000000000000000000000000000000000000000000000000000000600052601160045260246000fd5b6000611b3f82611afb565b9150611b4a83611afb565b925082821015611b5d57611b5c611b05565b5b828203905092915050565b7f4e487b7100000000000000000000000000000000000000000000000000000000600052603160045260246000fd5b6000611ba282611afb565b91507fffffffffffffffffffffffffffffffffffffffffffffffffffffffffffffffff8203611bd457611bd3611b05565b5b600182019050919050565b6000606082019050611bf4600083018661196c565b611c01602083018561196c565b8181036040830152611c1381846117e8565b9050949350505050565b7f507265666572656e636573206d757374206265206120737472696e672e000000600082015250565b6000611c53601d836117a4565b9150611c5e82611c1d565b602082019050919050565b60006020820190508181036000830152611c8281611c46565b9050919050565b7f4b6579206d757374206265206120737472696e672e0000000000000000000000600082015250565b6000611cbf6015836117a4565b9150611cca82611c89565b602082019050919050565b60006020820190508181036000830152611cee81611cb2565b9050919050565b7f4e487b7100000000000000000000000000000000000000000000000000000000600052602260045260246000fd5b60006002820490506001821680611d3c57607f821691505b602082108103611d4f57611d4e611cf5565b5b50919050565b60008190508160005260206000209050919050565b60008154611d7781611d24565b611d818186611a51565b94506001821660008114611d9c5760018114611dad57611de0565b60ff19831686528186019350611de0565b611db685611d55565b60005b83811015611dd857815481890152600182019150602081019050611db9565b838801955050505b50505092915050565b6000611df58284611d6a565b91508190509291505056fea26469706673582212205887671bea1c54074cff406c79be378a8e68443ffa43dd954e6af8b1efc2196e64736f6c634300080d0033",
  "immutableReferences": {},
  "source": "pragma solidity ^0.8.4;\r\n \r\n// These custom errors unfortunately do not display in the Truffle Console\r\n// https://github.com/trufflesuite/truffle/issues/4123\r\n\r\n/// Preferences not found for this address + H(key) combination.\r\n/// @param userAddress Address used.\r\n/// @param hashKey Hashed key used.\r\nerror PreferencesNotFound(address userAddress, string hashKey);\r\n\r\n/// This address + H(key) combination was not found.\r\n/// @param userAddress Address used.\r\n/// @param hashKey Hashed key used.\r\nerror KeyNotInUse(address userAddress, string hashKey);\r\n\r\n/// This address was not found in approvedAddresses for this address + H(key) combination.\r\n/// @param approvedAddress Approved Address used.\r\n/// @param userAddress Address used.\r\n/// @param hashKey Hashed key used.\r\nerror ApprovedAddressNotFound(address approvedAddress,address userAddress, string hashKey);\r\n\r\n/// Can't remove your own address from approved addresses.\r\n/// @param userAddress Your address.\r\n/// @param hashKey Hashed key used.\r\nerror CantRemoveOwnAddress(address userAddress, string hashKey);\r\n\r\n/// This address already exists approvedAddresses for this address + H(key) combination.\r\n/// @param approvedAddress Approved Address used.\r\n/// @param userAddress Address used.\r\n/// @param hashKey Hashed key used.\r\nerror ApprovedAddressAlreadyExists(address approvedAddress,address userAddress, string hashKey);\r\n \r\ncontract SITApreferences2{\r\n    mapping(bytes => string) private userpreferences; // Mapping bytes (address + key) to string of encrypted preferences\r\n    // Need to use bytes to be able to concatenate the address and key, should change later to a particular size bytes when we know address and key combined size\r\n\r\n    mapping(address => string[]) private usedKeys; // Mapping user's address to string array of the H(key)s in use for a user\r\n\r\n    mapping(bytes => address[]) private approvedAddresses; // Mapping address + H(key) to approved addresses that can read those preferences\r\n\r\n    constructor(){}\r\n\r\n    function setPreferences(string memory preferences, string memory key) public returns(bool success){ \r\n      require(keccak256(bytes(preferences)) != keccak256(bytes(\"\")), \"Preferences must be a string.\");\r\n      require(keccak256(bytes(key)) != keccak256(bytes(\"\")), \"Key must be a string.\");\r\n      // Stores user's preferences in the contract under the key, can only modify your own preferences\r\n\r\n      if (!(keyInUse(msg.sender,key))){ \r\n        // If the key isn't already in use it needs to be added to the array in the usedKey mapping\r\n        usedKeys[msg.sender].push(key);\r\n        addApprovedAddress(msg.sender, key); // Adds the user's address to approved addresses the first time a key is used.\r\n      }\r\n\r\n      bytes memory keyBytes = abi.encodePacked(key); // Convert string parameter for the secret key to bytes\r\n      userpreferences[abi.encodePacked(msg.sender, keyBytes)] = preferences; // Store the preference array mapped under address + secret key as the mapping key\r\n      return(true);\r\n    }\r\n\r\n    function getPreferences(address userAddress,string memory key) public view returns(string memory preferences){\r\n      // Attempts to retrieve preferences stored under the provided address + H(key) combination\r\n      bytes memory keyBytes = abi.encodePacked(key); // Convert string parameter for the secret key to bytes\r\n\r\n      if(approvedAddressExists(userAddress, key, msg.sender)){\r\n        // Only addresses approved by the user are allowed to retrieve the encrypted preferences\r\n        if(keyInUse(userAddress, key)){\r\n          // Make sure the key is in use (and thus the preferences attempting to be retrieved exist)\r\n          return(userpreferences[abi.encodePacked(userAddress, keyBytes)]);\r\n        }\r\n        else{\r\n          // Return error indicating this preferences set isn't found\r\n          revert PreferencesNotFound(userAddress, key);\r\n        }\r\n      }\r\n      else{\r\n        // Return error indicating the user isn't approved to retrieve these preferences\r\n        revert ApprovedAddressNotFound(msg.sender,userAddress,key);\r\n      }\r\n    }\r\n\r\n    function deletePreferences(string memory keyHash) public returns(bool success){\r\n      // Attempts to delete a user's preferences stored under the provided H(key), only callable on your own preferences\r\n      bytes memory keyBytes = abi.encodePacked(keyHash); // Convert string parameter for the secret key to bytes\r\n\r\n      // Delete just leaves all the entries under these keys as the default ('' for strings, and empty arrays)\r\n      // getPreferences, getApprovedAddresses etc don't work as the key is no longer in use\r\n      if(keyInUse(msg.sender,keyHash)){\r\n        // Only delete preferences if the key is use\r\n        delete approvedAddresses[abi.encodePacked(msg.sender, keyBytes)];\r\n        delete userpreferences[abi.encodePacked(msg.sender, keyBytes)]; \r\n\r\n        for(uint i; i < usedKeys[msg.sender].length; i++){ // Iterate through the user's keys\r\n          if (keccak256(bytes(usedKeys[msg.sender][i])) == keccak256(bytes(keyHash))){ // Compare the key in usedKeys array and the key the user has entered\r\n            usedKeys[msg.sender][i] = usedKeys[msg.sender][(usedKeys[msg.sender].length) - 1]; // Set the key to be deleted equal to the last key in the array\r\n            usedKeys[msg.sender].pop(); // Remove the last key in the array\r\n            return(true);\r\n          }\r\n        }\r\n      }\r\n      else{\r\n        // Return error indicating the key isn't in use\r\n        revert KeyNotInUse(msg.sender, keyHash);\r\n      }\r\n\r\n    }\r\n\r\n    function keyInUse(address userAddress, string memory keyHash) private view returns(bool keyExists){ \r\n      // Helper function to check if a key already exists in keysUsed\r\n      keyExists = false; // Boolean value for whether the key exists or not\r\n\r\n      for(uint i; i < usedKeys[userAddress].length; i++){ // Iterate through the user's keys\r\n        if (keccak256(bytes(usedKeys[userAddress][i])) == keccak256(bytes(keyHash))){ // Compare the key in usedKeys array and the key the user has entered\r\n          keyExists = true; \r\n        }\r\n      }\r\n\r\n      return(keyExists);\r\n    }\r\n\r\n    function addApprovedAddress(address approvedAddress, string memory keyHash) public returns(bool success){\r\n      // Attempts to add an approved address for the provided address + H(key) combination, only callable on own preferences\r\n      \r\n      if(keyInUse(msg.sender,keyHash)){\r\n        // Only add approved address if the preferences exist\r\n        if (approvedAddressExists(msg.sender, keyHash,approvedAddress)){\r\n          // Prevents duplicate entries in approvedAddresses, returns error\r\n          //revert ApprovedAddressAlreadyExists(approvedAddress,msg.sender,keyHash);\r\n          return(true);\r\n        }\r\n        // If approved address isn't already present\r\n        bytes memory keyBytes = abi.encodePacked(keyHash); // Convert string parameter for the secret key to bytes\r\n        approvedAddresses[abi.encodePacked(msg.sender, keyBytes)].push(approvedAddress); // Add approved address to list\r\n        return (true);\r\n      }\r\n      else{\r\n        // Returns error if key doesn't exist\r\n        revert KeyNotInUse(msg.sender, keyHash);\r\n      }\r\n\r\n    }\r\n\r\n    function getApprovedAddresses(string memory keyHash) public view returns(address[] memory addresses){\r\n      // Gets list of approved addresses for address + H(key) combination, only callable on own preferences\r\n       if(keyInUse(msg.sender,keyHash)){\r\n         // Only retrieve approved addresses if the key is in use\r\n        bytes memory keyBytes = abi.encodePacked(keyHash);\r\n        return(approvedAddresses[abi.encodePacked(msg.sender, keyBytes)]);\r\n       }\r\n       else{\r\n         // Returns error if key doesn't exist\r\n         revert KeyNotInUse(msg.sender, keyHash);\r\n       }\r\n    }\r\n\r\n    function removeApprovedAddress(address removeAddress, string memory keyHash) public returns (bool success){ \r\n      // Removes an approved address for address + H(key) combination, only callable on own preferences\r\n\r\n      if(removeAddress == msg.sender){\r\n        // User not allowed to remove their own address\r\n        revert CantRemoveOwnAddress(msg.sender, keyHash);\r\n      }\r\n\r\n      if(keyInUse(msg.sender,keyHash)){ // Don't waste computing power (and thus Ethereum) looping through if the key isn't being used\r\n        bytes memory keyBytes = abi.encodePacked(keyHash);\r\n        address[] memory approvedAddressList = approvedAddresses[abi.encodePacked(msg.sender, keyBytes)]; // Gets the list to reduce the complexity of the for loop\r\n        for(uint i; i < approvedAddressList.length; i++){  // Iterates through the users approved addresses\r\n          if (approvedAddressList[i] == removeAddress){ // Attempts to find the address to be removed\r\n            approvedAddresses[abi.encodePacked(msg.sender, keyBytes)][i] = approvedAddresses[abi.encodePacked(msg.sender, keyBytes)][approvedAddressList.length - 1]; // Sets the index of address to be removed to be equal to the last address in the array\r\n            approvedAddresses[abi.encodePacked(msg.sender, keyBytes)].pop(); // Pops the last address in the array, the last address now occupies [i] \r\n            return (true);\r\n          }\r\n        }\r\n        // If we loop through all approved addresses without finding it return error\r\n        revert ApprovedAddressNotFound(removeAddress,msg.sender,keyHash);\r\n      }\r\n      else{\r\n        // Returns error if key doesn't exist\r\n        revert KeyNotInUse(msg.sender, keyHash);\r\n      }\r\n      \r\n    }\r\n\r\n    function approvedAddressExists(address userAddress, string memory keyHash, address approvedAddress) private view returns (bool success){ \r\n      // Helper function which checks if an address exists in approved addresses for address + H(key) combination\r\n\r\n      if(keyInUse(userAddress,keyHash)){ // Don't waste computing power (and thus Ethereum) looping through if the key isn't being used\r\n        bytes memory keyBytes = abi.encodePacked(keyHash);\r\n        address[] memory approvedAddressList = approvedAddresses[abi.encodePacked(userAddress, keyBytes)];\r\n        for(uint i; i < approvedAddressList.length; i++){  // Iterates through the users approved addresses\r\n          if (approvedAddressList[i] == approvedAddress){ // Checks if the address exists in approvedAddresses\r\n            return(true);\r\n          }\r\n        }\r\n        return(false);\r\n      }\r\n      else{\r\n        // Provide Approved Address not found error instead of key not in use error to prevent leaking whether a user is using \r\n        // a certain key (necessary as this function is called in getPreferences, which can be called by not just the preferences owner)\r\n        revert ApprovedAddressNotFound(approvedAddress,userAddress,keyHash); \r\n      }\r\n\r\n    }\r\n\r\n    function deleteAllPreferences() public{\r\n      // The nuclear option. Allows user to delete all preference sets stored for them without providing the key.\r\n      // For use in case a user wants to delete a preference set but has forgotten the key\r\n\r\n      string[] memory keysInUse = usedKeys[msg.sender]; // Gets all the keys the user has\r\n\r\n      for(uint i; i < keysInUse.length; i++){ // Iterates through all the keys the user has\r\n        deletePreferences(keysInUse[i]); // Deletes the preference set under this key\r\n      }\r\n    }\r\n\r\n}",
  "sourcePath": "C:\\Users\\joelg\\Desktop\\react\\contracts\\SITApreferences2.sol",
  "compiler": {
    "name": "solc",
    "version": "0.8.13+commit.abaa5c0e.Emscripten.clang"
  },
  "schemaVersion": "3.4.4",
  "updatedAt": "2022-04-05T12:37:15.062Z",
  "networkType": "ethereum",
  "devdoc": {
    "errors": {
      "ApprovedAddressNotFound(address,address,string)": [
        {
          "params": {
            "approvedAddress": "Approved Address used.",
            "hashKey": "Hashed key used.",
            "userAddress": "Address used."
          }
        }
      ],
      "CantRemoveOwnAddress(address,string)": [
        {
          "params": {
            "hashKey": "Hashed key used.",
            "userAddress": "Your address."
          }
        }
      ],
      "KeyNotInUse(address,string)": [
        {
          "params": {
            "hashKey": "Hashed key used.",
            "userAddress": "Address used."
          }
        }
      ],
      "PreferencesNotFound(address,string)": [
        {
          "params": {
            "hashKey": "Hashed key used.",
            "userAddress": "Address used."
          }
        }
      ]
    },
    "kind": "dev",
    "methods": {},
    "version": 1
  },
  "userdoc": {
    "errors": {
      "ApprovedAddressNotFound(address,address,string)": [
        {
          "notice": "This address was not found in approvedAddresses for this address + H(key) combination."
        }
      ],
      "CantRemoveOwnAddress(address,string)": [
        {
          "notice": "Can't remove your own address from approved addresses."
        }
      ],
      "KeyNotInUse(address,string)": [
        {
          "notice": "This address + H(key) combination was not found."
        }
      ],
      "PreferencesNotFound(address,string)": [
        {
          "notice": "Preferences not found for this address + H(key) combination."
        }
      ]
    },
    "kind": "user",
    "methods": {},
    "version": 1
  }
}