{
  "contractName": "SITApreferences2",
  "abi": [
    {
      "inputs": [],
      "stateMutability": "nonpayable",
      "type": "constructor"
    },
    {
      "inputs": [
        {
          "internalType": "address",
          "name": "userAddress",
          "type": "address"
        },
        {
          "internalType": "string",
          "name": "hashKey",
          "type": "string"
        }
      ],
      "name": "KeyNotInUse",
      "type": "error"
    },
    {
      "inputs": [
        {
          "internalType": "address",
          "name": "userAddress",
          "type": "address"
        },
        {
          "internalType": "string",
          "name": "hashKey",
          "type": "string"
        }
      ],
      "name": "PreferencesNotFound",
      "type": "error"
    },
    {
      "inputs": [
        {
          "internalType": "string",
          "name": "preferences",
          "type": "string"
        },
        {
          "internalType": "string",
          "name": "key",
          "type": "string"
        }
      ],
      "name": "setPreferences",
      "outputs": [
        {
          "internalType": "bool",
          "name": "success",
          "type": "bool"
        }
      ],
      "stateMutability": "nonpayable",
      "type": "function"
    },
    {
      "inputs": [
        {
          "internalType": "address",
          "name": "userAddress",
          "type": "address"
        },
        {
          "internalType": "string",
          "name": "key",
          "type": "string"
        }
      ],
      "name": "getPreferences",
      "outputs": [
        {
          "internalType": "string",
          "name": "preferences",
          "type": "string"
        }
      ],
      "stateMutability": "nonpayable",
      "type": "function"
    },
    {
      "inputs": [
        {
          "internalType": "address",
          "name": "approvedAddress",
          "type": "address"
        },
        {
          "internalType": "string",
          "name": "keyHash",
          "type": "string"
        }
      ],
      "name": "addApprovedAddress",
      "outputs": [
        {
          "internalType": "bool",
          "name": "success",
          "type": "bool"
        }
      ],
      "stateMutability": "nonpayable",
      "type": "function"
    },
    {
      "inputs": [
        {
          "internalType": "string",
          "name": "keyHash",
          "type": "string"
        }
      ],
      "name": "getApprovedAddresses",
      "outputs": [
        {
          "internalType": "address[]",
          "name": "addresses",
          "type": "address[]"
        }
      ],
      "stateMutability": "nonpayable",
      "type": "function"
    }
  ],
  "bytecode": "0x608060405234801561001057600080fd5b50610f10806100206000396000f3fe608060405234801561001057600080fd5b506004361061004c5760003560e01c806315bd38161461005157806320103dde146100815780634bd92bce146100b1578063ec53f6c2146100e1575b600080fd5b61006b600480360381019061006691906108e2565b610111565b6040516100789190610959565b60405180910390f35b61009b60048036038101906100969190610974565b6101fb565b6040516100a89190610959565b60405180910390f35b6100cb60048036038101906100c691906108e2565b61030e565b6040516100d89190610a74565b60405180910390f35b6100fb60048036038101906100f69190610a96565b610458565b6040516101089190610b9d565b60405180910390f35b600061011d338361059d565b156101f0576000826040516020016101359190610bfb565b60405160208183030381529060405290506002338260405160200161015b929190610ca1565b6040516020818303038152906040526040516101779190610cc9565b9081526020016040518091039020849080600181540180825580915050600190039060005260206000200160009091909190916101000a81548173ffffffffffffffffffffffffffffffffffffffff021916908373ffffffffffffffffffffffffffffffffffffffff16021790555060019150506101f5565b600090505b92915050565b600080151561020a338461059d565b15150361028b57600160003373ffffffffffffffffffffffffffffffffffffffff1673ffffffffffffffffffffffffffffffffffffffff16815260200190815260200160002082908060018154018082558091505060019003906000526020600020016000909190919091509080519060200190610289929190610687565b505b60008260405160200161029e9190610bfb565b604051602081830303815290604052905083600033836040516020016102c5929190610ca1565b6040516020818303038152906040526040516102e19190610cc9565b90815260200160405180910390209080519060200190610302929190610687565b50600191505092915050565b60606000826040516020016103239190610bfb565b604051602081830303815290604052905061033e848461059d565b156104135760008482604051602001610358929190610ca1565b6040516020818303038152906040526040516103749190610cc9565b9081526020016040518091039020805461038d90610d0f565b80601f01602080910402602001604051908101604052809291908181526020018280546103b990610d0f565b80156104065780601f106103db57610100808354040283529160200191610406565b820191906000526020600020905b8154815290600101906020018083116103e957829003601f168201915b5050505050915050610452565b83836040517f64269716000000000000000000000000000000000000000000000000000000008152600401610449929190610d4f565b60405180910390fd5b92915050565b6060610464338361059d565b156105595760008260405160200161047c9190610bfb565b6040516020818303038152906040529050600233826040516020016104a2929190610ca1565b6040516020818303038152906040526040516104be9190610cc9565b908152602001604051809103902080548060200260200160405190810160405280929190818152602001828054801561054c57602002820191906000526020600020905b8160009054906101000a900473ffffffffffffffffffffffffffffffffffffffff1673ffffffffffffffffffffffffffffffffffffffff1681526020019060010190808311610502575b5050505050915050610598565b33826040517f34fa87f700000000000000000000000000000000000000000000000000000000815260040161058f929190610d4f565b60405180910390fd5b919050565b6000805b600160008573ffffffffffffffffffffffffffffffffffffffff1673ffffffffffffffffffffffffffffffffffffffff16815260200190815260200160002080549050811015610680578280519060200120600160008673ffffffffffffffffffffffffffffffffffffffff1673ffffffffffffffffffffffffffffffffffffffff168152602001908152602001600020828154811061064457610643610d7f565b5b9060005260206000200160405161065b9190610e42565b60405180910390200361066d57600191505b808061067890610e92565b9150506105a1565b5092915050565b82805461069390610d0f565b90600052602060002090601f0160209004810192826106b557600085556106fc565b82601f106106ce57805160ff19168380011785556106fc565b828001600101855582156106fc579182015b828111156106fb5782518255916020019190600101906106e0565b5b509050610709919061070d565b5090565b5b8082111561072657600081600090555060010161070e565b5090565b6000604051905090565b600080fd5b600080fd5b600073ffffffffffffffffffffffffffffffffffffffff82169050919050565b60006107698261073e565b9050919050565b6107798161075e565b811461078457600080fd5b50565b60008135905061079681610770565b92915050565b600080fd5b600080fd5b6000601f19601f8301169050919050565b7f4e487b7100000000000000000000000000000000000000000000000000000000600052604160045260246000fd5b6107ef826107a6565b810181811067ffffffffffffffff8211171561080e5761080d6107b7565b5b80604052505050565b600061082161072a565b905061082d82826107e6565b919050565b600067ffffffffffffffff82111561084d5761084c6107b7565b5b610856826107a6565b9050602081019050919050565b82818337600083830152505050565b600061088561088084610832565b610817565b9050828152602081018484840111156108a1576108a06107a1565b5b6108ac848285610863565b509392505050565b600082601f8301126108c9576108c861079c565b5b81356108d9848260208601610872565b91505092915050565b600080604083850312156108f9576108f8610734565b5b600061090785828601610787565b925050602083013567ffffffffffffffff81111561092857610927610739565b5b610934858286016108b4565b9150509250929050565b60008115159050919050565b6109538161093e565b82525050565b600060208201905061096e600083018461094a565b92915050565b6000806040838503121561098b5761098a610734565b5b600083013567ffffffffffffffff8111156109a9576109a8610739565b5b6109b5858286016108b4565b925050602083013567ffffffffffffffff8111156109d6576109d5610739565b5b6109e2858286016108b4565b9150509250929050565b600081519050919050565b600082825260208201905092915050565b60005b83811015610a26578082015181840152602081019050610a0b565b83811115610a35576000848401525b50505050565b6000610a46826109ec565b610a5081856109f7565b9350610a60818560208601610a08565b610a69816107a6565b840191505092915050565b60006020820190508181036000830152610a8e8184610a3b565b905092915050565b600060208284031215610aac57610aab610734565b5b600082013567ffffffffffffffff811115610aca57610ac9610739565b5b610ad6848285016108b4565b91505092915050565b600081519050919050565b600082825260208201905092915050565b6000819050602082019050919050565b610b148161075e565b82525050565b6000610b268383610b0b565b60208301905092915050565b6000602082019050919050565b6000610b4a82610adf565b610b548185610aea565b9350610b5f83610afb565b8060005b83811015610b90578151610b778882610b1a565b9750610b8283610b32565b925050600181019050610b63565b5085935050505092915050565b60006020820190508181036000830152610bb78184610b3f565b905092915050565b600081905092915050565b6000610bd5826109ec565b610bdf8185610bbf565b9350610bef818560208601610a08565b80840191505092915050565b6000610c078284610bca565b915081905092915050565b60008160601b9050919050565b6000610c2a82610c12565b9050919050565b6000610c3c82610c1f565b9050919050565b610c54610c4f8261075e565b610c31565b82525050565b600081519050919050565b600081905092915050565b6000610c7b82610c5a565b610c858185610c65565b9350610c95818560208601610a08565b80840191505092915050565b6000610cad8285610c43565b601482019150610cbd8284610c70565b91508190509392505050565b6000610cd58284610c70565b915081905092915050565b7f4e487b7100000000000000000000000000000000000000000000000000000000600052602260045260246000fd5b60006002820490506001821680610d2757607f821691505b602082108103610d3a57610d39610ce0565b5b50919050565b610d498161075e565b82525050565b6000604082019050610d646000830185610d40565b8181036020830152610d768184610a3b565b90509392505050565b7f4e487b7100000000000000000000000000000000000000000000000000000000600052603260045260246000fd5b60008190508160005260206000209050919050565b60008154610dd081610d0f565b610dda8186610c65565b94506001821660008114610df55760018114610e0657610e39565b60ff19831686528186019350610e39565b610e0f85610dae565b60005b83811015610e3157815481890152600182019150602081019050610e12565b838801955050505b50505092915050565b6000610e4e8284610dc3565b915081905092915050565b7f4e487b7100000000000000000000000000000000000000000000000000000000600052601160045260246000fd5b6000819050919050565b6000610e9d82610e88565b91507fffffffffffffffffffffffffffffffffffffffffffffffffffffffffffffffff8203610ecf57610ece610e59565b5b60018201905091905056fea2646970667358221220a5bb12b364e98d21c15859b3f5c097ccea15676f6b357d28e155f1dc0928fa4e64736f6c634300080d0033",
  "immutableReferences": {},
  "source": "pragma solidity ^0.8.4;\r\n \r\n/// Preferences not found for this address + H(key) combination.\r\n/// @param userAddress Address used.\r\n/// @param hashKey Hashed key used.\r\nerror PreferencesNotFound(address userAddress, string hashKey);\r\n\r\n/// This address + H(key) combination was not found.\r\n/// @param userAddress Address used.\r\n/// @param hashKey Hashed key used.\r\nerror KeyNotInUse(address userAddress, string hashKey);\r\n \r\ncontract SITApreferences2{\r\n    mapping(bytes => string) private userpreferences; // Mapping bytes (address + key) as you cant use struct or array as mapping keys\r\n    // Need to use bytes to be able to concatenate the address and key, should change later to a particular size bytes when we know address and key combined size\r\n\r\n    mapping(address => string[]) private usedKeys; // String array of the H(key) in use for a user\r\n\r\n    mapping(bytes => address[]) private approvedAddresses; // Mapping linking address + H(key) to approved addresses\r\n\r\n    constructor(){}\r\n\r\n    function setPreferences(string memory preferences, string memory key) public returns(bool success){\r\n      // Require statement here to ensure all dimensions are 0-4\r\n\r\n      if (keyInUse(msg.sender,key) == false){ // If the key isn't already in use it needs to be added to the array in the usedKey mapping\r\n        usedKeys[msg.sender].push(key);\r\n      }\r\n\r\n      bytes memory keyBytes = abi.encodePacked(key); // Convert string parameter for the secret key to bytes\r\n      userpreferences[abi.encodePacked(msg.sender, keyBytes)] = preferences; // Store the preference array mapped under address + secret key as the mapping key\r\n      return(true); // Need to return upon success of setting, but need require statement\r\n    }\r\n\r\n    function getPreferences(address userAddress,string memory key) public returns(string memory preferences){\r\n      bytes memory keyBytes = abi.encodePacked(key); // Convert string parameter for the secret key to bytes\r\n\r\n      if(keyInUse(userAddress, key)){\r\n        return(userpreferences[abi.encodePacked(userAddress, keyBytes)]);\r\n      }\r\n      else{\r\n        revert PreferencesNotFound(userAddress, key);\r\n      }\r\n\r\n    }\r\n\r\n    function keyInUse(address userAddress, string memory keyHash) private returns(bool keyExists){ // Helper function to check if a key already exists in keysUsed\r\n      keyExists = false; // Boolean value for whether the key exists yet or not\r\n\r\n      for(uint i; i < usedKeys[userAddress].length; i++){ // Iterate through the user's keys\r\n        if (keccak256(bytes(usedKeys[userAddress][i])) == keccak256(bytes(keyHash))){ // Compare the key in usedKeys array and the key the user has entered\r\n          keyExists = true; \r\n        }\r\n      }\r\n\r\n      return(keyExists);\r\n    }\r\n\r\n    function addApprovedAddress(address approvedAddress, string memory keyHash) public returns(bool success){\r\n      if(keyInUse(msg.sender,keyHash)){\r\n        bytes memory keyBytes = abi.encodePacked(keyHash);\r\n        approvedAddresses[abi.encodePacked(msg.sender, keyBytes)].push(approvedAddress);\r\n        return (true);\r\n      }\r\n      else{\r\n        return (false);\r\n      }\r\n\r\n    }\r\n\r\n    function getApprovedAddresses(string memory keyHash) public returns(address[] memory addresses){\r\n       if(keyInUse(msg.sender,keyHash)){\r\n        bytes memory keyBytes = abi.encodePacked(keyHash);\r\n        return(approvedAddresses[abi.encodePacked(msg.sender, keyBytes)]);\r\n       }\r\n       else{\r\n         revert KeyNotInUse(msg.sender, keyHash);\r\n       }\r\n    }\r\n\r\n}",
  "sourcePath": "C:\\Users\\joelg\\Desktop\\react\\contracts\\SITApreferences2.sol",
  "compiler": {
    "name": "solc",
    "version": "0.8.13+commit.abaa5c0e.Emscripten.clang"
  },
  "schemaVersion": "3.4.4",
  "updatedAt": "2022-03-29T17:04:08.301Z",
  "networkType": "ethereum",
  "devdoc": {
    "errors": {
      "KeyNotInUse(address,string)": [
        {
          "params": {
            "hashKey": "Hashed key used.",
            "userAddress": "Address used."
          }
        }
      ],
      "PreferencesNotFound(address,string)": [
        {
          "params": {
            "hashKey": "Hashed key used.",
            "userAddress": "Address used."
          }
        }
      ]
    },
    "kind": "dev",
    "methods": {},
    "version": 1
  },
  "userdoc": {
    "errors": {
      "KeyNotInUse(address,string)": [
        {
          "notice": "This address + H(key) combination was not found."
        }
      ],
      "PreferencesNotFound(address,string)": [
        {
          "notice": "Preferences not found for this address + H(key) combination."
        }
      ]
    },
    "kind": "user",
    "methods": {},
    "version": 1
  }
}