{
  "contractName": "SITApreferences2",
  "abi": [
    {
      "inputs": [],
      "stateMutability": "nonpayable",
      "type": "constructor"
    },
    {
      "inputs": [
        {
          "internalType": "address",
          "name": "approvedAddress",
          "type": "address"
        },
        {
          "internalType": "address",
          "name": "userAddress",
          "type": "address"
        },
        {
          "internalType": "string",
          "name": "hashKey",
          "type": "string"
        }
      ],
      "name": "ApprovedAddressNotFound",
      "type": "error"
    },
    {
      "inputs": [
        {
          "internalType": "address",
          "name": "userAddress",
          "type": "address"
        },
        {
          "internalType": "string",
          "name": "hashKey",
          "type": "string"
        }
      ],
      "name": "KeyNotInUse",
      "type": "error"
    },
    {
      "inputs": [
        {
          "internalType": "address",
          "name": "userAddress",
          "type": "address"
        },
        {
          "internalType": "string",
          "name": "hashKey",
          "type": "string"
        }
      ],
      "name": "PreferencesNotFound",
      "type": "error"
    },
    {
      "inputs": [
        {
          "internalType": "string",
          "name": "preferences",
          "type": "string"
        },
        {
          "internalType": "string",
          "name": "key",
          "type": "string"
        }
      ],
      "name": "setPreferences",
      "outputs": [
        {
          "internalType": "bool",
          "name": "success",
          "type": "bool"
        }
      ],
      "stateMutability": "nonpayable",
      "type": "function"
    },
    {
      "inputs": [
        {
          "internalType": "address",
          "name": "userAddress",
          "type": "address"
        },
        {
          "internalType": "string",
          "name": "key",
          "type": "string"
        }
      ],
      "name": "getPreferences",
      "outputs": [
        {
          "internalType": "string",
          "name": "preferences",
          "type": "string"
        }
      ],
      "stateMutability": "nonpayable",
      "type": "function"
    },
    {
      "inputs": [
        {
          "internalType": "address",
          "name": "approvedAddress",
          "type": "address"
        },
        {
          "internalType": "string",
          "name": "keyHash",
          "type": "string"
        }
      ],
      "name": "addApprovedAddress",
      "outputs": [
        {
          "internalType": "bool",
          "name": "success",
          "type": "bool"
        }
      ],
      "stateMutability": "nonpayable",
      "type": "function"
    },
    {
      "inputs": [
        {
          "internalType": "string",
          "name": "keyHash",
          "type": "string"
        }
      ],
      "name": "getApprovedAddresses",
      "outputs": [
        {
          "internalType": "address[]",
          "name": "addresses",
          "type": "address[]"
        }
      ],
      "stateMutability": "nonpayable",
      "type": "function"
    },
    {
      "inputs": [
        {
          "internalType": "address",
          "name": "removeAddress",
          "type": "address"
        },
        {
          "internalType": "string",
          "name": "keyHash",
          "type": "string"
        }
      ],
      "name": "removeApprovedAddress",
      "outputs": [
        {
          "internalType": "bool",
          "name": "success",
          "type": "bool"
        }
      ],
      "stateMutability": "nonpayable",
      "type": "function"
    }
  ],
  "bytecode": "0x608060405234801561001057600080fd5b5061138e806100206000396000f3fe608060405234801561001057600080fd5b50600436106100575760003560e01c806303a74a9c1461005c57806315bd38161461008c57806320103dde146100bc5780634bd92bce146100ec578063ec53f6c21461011c575b600080fd5b61007660048036038101906100719190610cbf565b61014c565b6040516100839190610d36565b60405180910390f35b6100a660048036038101906100a19190610cbf565b6104ee565b6040516100b39190610d36565b60405180910390f35b6100d660048036038101906100d19190610d51565b6105d8565b6040516100e39190610d36565b60405180910390f35b61010660048036038101906101019190610cbf565b6106eb565b6040516101139190610e51565b60405180910390f35b61013660048036038101906101319190610e73565b610835565b6040516101439190610f7a565b60405180910390f35b6000610158338361097a565b156104a9576000826040516020016101709190610fd8565b604051602081830303815290604052905060006002338360405160200161019892919061107e565b6040516020818303038152906040526040516101b491906110a6565b908152602001604051809103902080548060200260200160405190810160405280929190818152602001828054801561024257602002820191906000526020600020905b8160009054906101000a900473ffffffffffffffffffffffffffffffffffffffff1673ffffffffffffffffffffffffffffffffffffffff16815260200190600101908083116101f8575b5050505050905060005b8151811015610467578573ffffffffffffffffffffffffffffffffffffffff1682828151811061027f5761027e6110bd565b5b602002602001015173ffffffffffffffffffffffffffffffffffffffff160361045457600233846040516020016102b792919061107e565b6040516020818303038152906040526040516102d391906110a6565b9081526020016040518091039020600183516102ef9190611125565b81548110610300576102ff6110bd565b5b9060005260206000200160009054906101000a900473ffffffffffffffffffffffffffffffffffffffff166002338560405160200161034092919061107e565b60405160208183030381529060405260405161035c91906110a6565b9081526020016040518091039020828154811061037c5761037b6110bd565b5b9060005260206000200160006101000a81548173ffffffffffffffffffffffffffffffffffffffff021916908373ffffffffffffffffffffffffffffffffffffffff160217905550600233846040516020016103d992919061107e565b6040516020818303038152906040526040516103f591906110a6565b908152602001604051809103902080548061041357610412611159565b5b6001900381819060005260206000200160006101000a81549073ffffffffffffffffffffffffffffffffffffffff02191690559055600193505050506104e8565b808061045f90611188565b91505061024c565b508433856040517f975241170000000000000000000000000000000000000000000000000000000081526004016104a0939291906111df565b60405180910390fd5b33826040517f34fa87f70000000000000000000000000000000000000000000000000000000081526004016104df92919061121d565b60405180910390fd5b92915050565b60006104fa338361097a565b156105cd576000826040516020016105129190610fd8565b60405160208183030381529060405290506002338260405160200161053892919061107e565b60405160208183030381529060405260405161055491906110a6565b9081526020016040518091039020849080600181540180825580915050600190039060005260206000200160009091909190916101000a81548173ffffffffffffffffffffffffffffffffffffffff021916908373ffffffffffffffffffffffffffffffffffffffff16021790555060019150506105d2565b600090505b92915050565b60008015156105e7338461097a565b15150361066857600160003373ffffffffffffffffffffffffffffffffffffffff1673ffffffffffffffffffffffffffffffffffffffff16815260200190815260200160002082908060018154018082558091505060019003906000526020600020016000909190919091509080519060200190610666929190610a64565b505b60008260405160200161067b9190610fd8565b604051602081830303815290604052905083600033836040516020016106a292919061107e565b6040516020818303038152906040526040516106be91906110a6565b908152602001604051809103902090805190602001906106df929190610a64565b50600191505092915050565b60606000826040516020016107009190610fd8565b604051602081830303815290604052905061071b848461097a565b156107f0576000848260405160200161073592919061107e565b60405160208183030381529060405260405161075191906110a6565b9081526020016040518091039020805461076a9061127c565b80601f01602080910402602001604051908101604052809291908181526020018280546107969061127c565b80156107e35780601f106107b8576101008083540402835291602001916107e3565b820191906000526020600020905b8154815290600101906020018083116107c657829003601f168201915b505050505091505061082f565b83836040517f6426971600000000000000000000000000000000000000000000000000000000815260040161082692919061121d565b60405180910390fd5b92915050565b6060610841338361097a565b15610936576000826040516020016108599190610fd8565b60405160208183030381529060405290506002338260405160200161087f92919061107e565b60405160208183030381529060405260405161089b91906110a6565b908152602001604051809103902080548060200260200160405190810160405280929190818152602001828054801561092957602002820191906000526020600020905b8160009054906101000a900473ffffffffffffffffffffffffffffffffffffffff1673ffffffffffffffffffffffffffffffffffffffff16815260200190600101908083116108df575b5050505050915050610975565b33826040517f34fa87f700000000000000000000000000000000000000000000000000000000815260040161096c92919061121d565b60405180910390fd5b919050565b6000805b600160008573ffffffffffffffffffffffffffffffffffffffff1673ffffffffffffffffffffffffffffffffffffffff16815260200190815260200160002080549050811015610a5d578280519060200120600160008673ffffffffffffffffffffffffffffffffffffffff1673ffffffffffffffffffffffffffffffffffffffff1681526020019081526020016000208281548110610a2157610a206110bd565b5b90600052602060002001604051610a389190611341565b604051809103902003610a4a57600191505b8080610a5590611188565b91505061097e565b5092915050565b828054610a709061127c565b90600052602060002090601f016020900481019282610a925760008555610ad9565b82601f10610aab57805160ff1916838001178555610ad9565b82800160010185558215610ad9579182015b82811115610ad8578251825591602001919060010190610abd565b5b509050610ae69190610aea565b5090565b5b80821115610b03576000816000905550600101610aeb565b5090565b6000604051905090565b600080fd5b600080fd5b600073ffffffffffffffffffffffffffffffffffffffff82169050919050565b6000610b4682610b1b565b9050919050565b610b5681610b3b565b8114610b6157600080fd5b50565b600081359050610b7381610b4d565b92915050565b600080fd5b600080fd5b6000601f19601f8301169050919050565b7f4e487b7100000000000000000000000000000000000000000000000000000000600052604160045260246000fd5b610bcc82610b83565b810181811067ffffffffffffffff82111715610beb57610bea610b94565b5b80604052505050565b6000610bfe610b07565b9050610c0a8282610bc3565b919050565b600067ffffffffffffffff821115610c2a57610c29610b94565b5b610c3382610b83565b9050602081019050919050565b82818337600083830152505050565b6000610c62610c5d84610c0f565b610bf4565b905082815260208101848484011115610c7e57610c7d610b7e565b5b610c89848285610c40565b509392505050565b600082601f830112610ca657610ca5610b79565b5b8135610cb6848260208601610c4f565b91505092915050565b60008060408385031215610cd657610cd5610b11565b5b6000610ce485828601610b64565b925050602083013567ffffffffffffffff811115610d0557610d04610b16565b5b610d1185828601610c91565b9150509250929050565b60008115159050919050565b610d3081610d1b565b82525050565b6000602082019050610d4b6000830184610d27565b92915050565b60008060408385031215610d6857610d67610b11565b5b600083013567ffffffffffffffff811115610d8657610d85610b16565b5b610d9285828601610c91565b925050602083013567ffffffffffffffff811115610db357610db2610b16565b5b610dbf85828601610c91565b9150509250929050565b600081519050919050565b600082825260208201905092915050565b60005b83811015610e03578082015181840152602081019050610de8565b83811115610e12576000848401525b50505050565b6000610e2382610dc9565b610e2d8185610dd4565b9350610e3d818560208601610de5565b610e4681610b83565b840191505092915050565b60006020820190508181036000830152610e6b8184610e18565b905092915050565b600060208284031215610e8957610e88610b11565b5b600082013567ffffffffffffffff811115610ea757610ea6610b16565b5b610eb384828501610c91565b91505092915050565b600081519050919050565b600082825260208201905092915050565b6000819050602082019050919050565b610ef181610b3b565b82525050565b6000610f038383610ee8565b60208301905092915050565b6000602082019050919050565b6000610f2782610ebc565b610f318185610ec7565b9350610f3c83610ed8565b8060005b83811015610f6d578151610f548882610ef7565b9750610f5f83610f0f565b925050600181019050610f40565b5085935050505092915050565b60006020820190508181036000830152610f948184610f1c565b905092915050565b600081905092915050565b6000610fb282610dc9565b610fbc8185610f9c565b9350610fcc818560208601610de5565b80840191505092915050565b6000610fe48284610fa7565b915081905092915050565b60008160601b9050919050565b600061100782610fef565b9050919050565b600061101982610ffc565b9050919050565b61103161102c82610b3b565b61100e565b82525050565b600081519050919050565b600081905092915050565b600061105882611037565b6110628185611042565b9350611072818560208601610de5565b80840191505092915050565b600061108a8285611020565b60148201915061109a828461104d565b91508190509392505050565b60006110b2828461104d565b915081905092915050565b7f4e487b7100000000000000000000000000000000000000000000000000000000600052603260045260246000fd5b6000819050919050565b7f4e487b7100000000000000000000000000000000000000000000000000000000600052601160045260246000fd5b6000611130826110ec565b915061113b836110ec565b92508282101561114e5761114d6110f6565b5b828203905092915050565b7f4e487b7100000000000000000000000000000000000000000000000000000000600052603160045260246000fd5b6000611193826110ec565b91507fffffffffffffffffffffffffffffffffffffffffffffffffffffffffffffffff82036111c5576111c46110f6565b5b600182019050919050565b6111d981610b3b565b82525050565b60006060820190506111f460008301866111d0565b61120160208301856111d0565b81810360408301526112138184610e18565b9050949350505050565b600060408201905061123260008301856111d0565b81810360208301526112448184610e18565b90509392505050565b7f4e487b7100000000000000000000000000000000000000000000000000000000600052602260045260246000fd5b6000600282049050600182168061129457607f821691505b6020821081036112a7576112a661124d565b5b50919050565b60008190508160005260206000209050919050565b600081546112cf8161127c565b6112d98186611042565b945060018216600081146112f4576001811461130557611338565b60ff19831686528186019350611338565b61130e856112ad565b60005b8381101561133057815481890152600182019150602081019050611311565b838801955050505b50505092915050565b600061134d82846112c2565b91508190509291505056fea26469706673582212201f0640a9dab35c8c6416bd1ca7aa7b331fa79039a9f687b5accc2604c87476de64736f6c634300080d0033",
  "immutableReferences": {},
  "source": "pragma solidity ^0.8.4;\r\n \r\n/// Preferences not found for this address + H(key) combination.\r\n/// @param userAddress Address used.\r\n/// @param hashKey Hashed key used.\r\nerror PreferencesNotFound(address userAddress, string hashKey);\r\n\r\n/// This address + H(key) combination was not found.\r\n/// @param userAddress Address used.\r\n/// @param hashKey Hashed key used.\r\nerror KeyNotInUse(address userAddress, string hashKey);\r\n\r\n/// This address was not found in approvedAddresses for this address + H(key) combination.\r\n/// @param approvedAddress Approved Address.\r\n/// @param userAddress Address used.\r\n/// @param hashKey Hashed key used.\r\nerror ApprovedAddressNotFound(address approvedAddress,address userAddress, string hashKey);\r\n \r\ncontract SITApreferences2{\r\n    mapping(bytes => string) private userpreferences; // Mapping bytes (address + key) as you cant use struct or array as mapping keys\r\n    // Need to use bytes to be able to concatenate the address and key, should change later to a particular size bytes when we know address and key combined size\r\n\r\n    mapping(address => string[]) private usedKeys; // String array of the H(key) in use for a user\r\n\r\n    mapping(bytes => address[]) private approvedAddresses; // Mapping linking address + H(key) to approved addresses\r\n\r\n    constructor(){}\r\n\r\n    function setPreferences(string memory preferences, string memory key) public returns(bool success){\r\n      // Require statement here to ensure all dimensions are 0-4\r\n\r\n      if (keyInUse(msg.sender,key) == false){ // If the key isn't already in use it needs to be added to the array in the usedKey mapping\r\n        usedKeys[msg.sender].push(key);\r\n      }\r\n\r\n      bytes memory keyBytes = abi.encodePacked(key); // Convert string parameter for the secret key to bytes\r\n      userpreferences[abi.encodePacked(msg.sender, keyBytes)] = preferences; // Store the preference array mapped under address + secret key as the mapping key\r\n      return(true); // Need to return upon success of setting, but need require statement\r\n    }\r\n\r\n    function getPreferences(address userAddress,string memory key) public returns(string memory preferences){\r\n      bytes memory keyBytes = abi.encodePacked(key); // Convert string parameter for the secret key to bytes\r\n\r\n      if(keyInUse(userAddress, key)){\r\n        return(userpreferences[abi.encodePacked(userAddress, keyBytes)]);\r\n      }\r\n      else{\r\n        revert PreferencesNotFound(userAddress, key);\r\n      }\r\n\r\n    }\r\n\r\n    function keyInUse(address userAddress, string memory keyHash) private returns(bool keyExists){ // Helper function to check if a key already exists in keysUsed\r\n      keyExists = false; // Boolean value for whether the key exists yet or not\r\n\r\n      for(uint i; i < usedKeys[userAddress].length; i++){ // Iterate through the user's keys\r\n        if (keccak256(bytes(usedKeys[userAddress][i])) == keccak256(bytes(keyHash))){ // Compare the key in usedKeys array and the key the user has entered\r\n          keyExists = true; \r\n        }\r\n      }\r\n\r\n      return(keyExists);\r\n    }\r\n\r\n    function addApprovedAddress(address approvedAddress, string memory keyHash) public returns(bool success){\r\n      if(keyInUse(msg.sender,keyHash)){\r\n        bytes memory keyBytes = abi.encodePacked(keyHash);\r\n        approvedAddresses[abi.encodePacked(msg.sender, keyBytes)].push(approvedAddress);\r\n        return (true);\r\n      }\r\n      else{\r\n        return (false);\r\n      }\r\n\r\n    }\r\n\r\n    function getApprovedAddresses(string memory keyHash) public returns(address[] memory addresses){\r\n       if(keyInUse(msg.sender,keyHash)){\r\n        bytes memory keyBytes = abi.encodePacked(keyHash);\r\n        return(approvedAddresses[abi.encodePacked(msg.sender, keyBytes)]);\r\n       }\r\n       else{\r\n         revert KeyNotInUse(msg.sender, keyHash);\r\n       }\r\n    }\r\n\r\n    function removeApprovedAddress(address removeAddress, string memory keyHash) public returns (bool success){ // This should probably be converted to a helper function to prevent duplicate values, assuming hash-sets don't exist in Solidity\r\n      if(keyInUse(msg.sender,keyHash)){\r\n        bytes memory keyBytes = abi.encodePacked(keyHash);\r\n        address[] memory approvedAddressList = approvedAddresses[abi.encodePacked(msg.sender, keyBytes)]; // Gets the list to reduce the complexity of the for loop\r\n        for(uint i; i < approvedAddressList.length; i++){  // Iterates through the users approved addresses\r\n          if (approvedAddressList[i] == removeAddress){ // Attempts to find the address to be removed\r\n            approvedAddresses[abi.encodePacked(msg.sender, keyBytes)][i] = approvedAddresses[abi.encodePacked(msg.sender, keyBytes)][approvedAddressList.length - 1]; // Sets the index of address to be removed to be equal to the last address in the array\r\n            approvedAddresses[abi.encodePacked(msg.sender, keyBytes)].pop(); // Pops the last address in the array, the last address now occupies [i] \r\n            return (true);\r\n          }\r\n        }\r\n        revert ApprovedAddressNotFound(removeAddress,msg.sender,keyHash);\r\n      }\r\n      else{\r\n        revert KeyNotInUse(msg.sender, keyHash); // I think we're getting this revert even though key is in use?\r\n      }\r\n      \r\n    }\r\n\r\n}",
  "sourcePath": "C:\\Users\\joelg\\Desktop\\react\\contracts\\SITApreferences2.sol",
  "compiler": {
    "name": "solc",
    "version": "0.8.13+commit.abaa5c0e.Emscripten.clang"
  },
  "schemaVersion": "3.4.4",
  "updatedAt": "2022-03-30T13:10:28.585Z",
  "networkType": "ethereum",
  "devdoc": {
    "errors": {
      "ApprovedAddressNotFound(address,address,string)": [
        {
          "params": {
            "approvedAddress": "Approved Address.",
            "hashKey": "Hashed key used.",
            "userAddress": "Address used."
          }
        }
      ],
      "KeyNotInUse(address,string)": [
        {
          "params": {
            "hashKey": "Hashed key used.",
            "userAddress": "Address used."
          }
        }
      ],
      "PreferencesNotFound(address,string)": [
        {
          "params": {
            "hashKey": "Hashed key used.",
            "userAddress": "Address used."
          }
        }
      ]
    },
    "kind": "dev",
    "methods": {},
    "version": 1
  },
  "userdoc": {
    "errors": {
      "ApprovedAddressNotFound(address,address,string)": [
        {
          "notice": "This address was not found in approvedAddresses for this address + H(key) combination."
        }
      ],
      "KeyNotInUse(address,string)": [
        {
          "notice": "This address + H(key) combination was not found."
        }
      ],
      "PreferencesNotFound(address,string)": [
        {
          "notice": "Preferences not found for this address + H(key) combination."
        }
      ]
    },
    "kind": "user",
    "methods": {},
    "version": 1
  }
}