{
  "contractName": "SITApreferences2",
  "abi": [
    {
      "inputs": [],
      "stateMutability": "nonpayable",
      "type": "constructor"
    },
    {
      "inputs": [
        {
          "internalType": "address",
          "name": "approvedAddress",
          "type": "address"
        },
        {
          "internalType": "address",
          "name": "userAddress",
          "type": "address"
        },
        {
          "internalType": "string",
          "name": "hashKey",
          "type": "string"
        }
      ],
      "name": "ApprovedAddressAlreadyExists",
      "type": "error"
    },
    {
      "inputs": [
        {
          "internalType": "address",
          "name": "approvedAddress",
          "type": "address"
        },
        {
          "internalType": "address",
          "name": "userAddress",
          "type": "address"
        },
        {
          "internalType": "string",
          "name": "hashKey",
          "type": "string"
        }
      ],
      "name": "ApprovedAddressNotFound",
      "type": "error"
    },
    {
      "inputs": [
        {
          "internalType": "address",
          "name": "userAddress",
          "type": "address"
        },
        {
          "internalType": "string",
          "name": "hashKey",
          "type": "string"
        }
      ],
      "name": "CantRemoveOwnAddress",
      "type": "error"
    },
    {
      "inputs": [
        {
          "internalType": "address",
          "name": "userAddress",
          "type": "address"
        },
        {
          "internalType": "string",
          "name": "hashKey",
          "type": "string"
        }
      ],
      "name": "KeyNotInUse",
      "type": "error"
    },
    {
      "inputs": [
        {
          "internalType": "address",
          "name": "userAddress",
          "type": "address"
        },
        {
          "internalType": "string",
          "name": "hashKey",
          "type": "string"
        }
      ],
      "name": "PreferencesNotFound",
      "type": "error"
    },
    {
      "inputs": [
        {
          "internalType": "string",
          "name": "preferences",
          "type": "string"
        },
        {
          "internalType": "string",
          "name": "key",
          "type": "string"
        }
      ],
      "name": "setPreferences",
      "outputs": [
        {
          "internalType": "bool",
          "name": "success",
          "type": "bool"
        }
      ],
      "stateMutability": "nonpayable",
      "type": "function"
    },
    {
      "inputs": [
        {
          "internalType": "address",
          "name": "userAddress",
          "type": "address"
        },
        {
          "internalType": "string",
          "name": "key",
          "type": "string"
        }
      ],
      "name": "getPreferences",
      "outputs": [
        {
          "internalType": "string",
          "name": "preferences",
          "type": "string"
        }
      ],
      "stateMutability": "view",
      "type": "function",
      "constant": true
    },
    {
      "inputs": [
        {
          "internalType": "string",
          "name": "keyHash",
          "type": "string"
        }
      ],
      "name": "deletePreferences",
      "outputs": [
        {
          "internalType": "bool",
          "name": "success",
          "type": "bool"
        }
      ],
      "stateMutability": "nonpayable",
      "type": "function"
    },
    {
      "inputs": [
        {
          "internalType": "address",
          "name": "approvedAddress",
          "type": "address"
        },
        {
          "internalType": "string",
          "name": "keyHash",
          "type": "string"
        }
      ],
      "name": "addApprovedAddress",
      "outputs": [
        {
          "internalType": "bool",
          "name": "success",
          "type": "bool"
        }
      ],
      "stateMutability": "nonpayable",
      "type": "function"
    },
    {
      "inputs": [
        {
          "internalType": "string",
          "name": "keyHash",
          "type": "string"
        }
      ],
      "name": "getApprovedAddresses",
      "outputs": [
        {
          "internalType": "address[]",
          "name": "addresses",
          "type": "address[]"
        }
      ],
      "stateMutability": "view",
      "type": "function",
      "constant": true
    },
    {
      "inputs": [
        {
          "internalType": "address",
          "name": "removeAddress",
          "type": "address"
        },
        {
          "internalType": "string",
          "name": "keyHash",
          "type": "string"
        }
      ],
      "name": "removeApprovedAddress",
      "outputs": [
        {
          "internalType": "bool",
          "name": "success",
          "type": "bool"
        }
      ],
      "stateMutability": "nonpayable",
      "type": "function"
    },
    {
      "inputs": [],
      "name": "deleteAllPreferences",
      "outputs": [],
      "stateMutability": "nonpayable",
      "type": "function"
    }
  ],
  "bytecode": "0x608060405234801561001057600080fd5b50611cd8806100206000396000f3fe608060405234801561001057600080fd5b506004361061007d5760003560e01c80634bd92bce1161005b5780634bd92bce14610112578063c056047614610142578063d996d86a14610172578063ec53f6c21461017c5761007d565b806303a74a9c1461008257806315bd3816146100b257806320103dde146100e2575b600080fd5b61009c60048036038101906100979190611609565b6101ac565b6040516100a99190611680565b60405180910390f35b6100cc60048036038101906100c79190611609565b6105c0565b6040516100d99190611680565b60405180910390f35b6100fc60048036038101906100f7919061169b565b610735565b6040516101099190611680565b60405180910390f35b61012c60048036038101906101279190611609565b61084d565b604051610139919061179b565b60405180910390f35b61015c600480360381019061015791906117bd565b6109e8565b6040516101699190611680565b60405180910390f35b61017a610d6e565b005b610196600480360381019061019191906117bd565b610ec8565b6040516101a391906118c4565b60405180910390f35b60003373ffffffffffffffffffffffffffffffffffffffff168373ffffffffffffffffffffffffffffffffffffffff16036102205733826040517fc0e65c200000000000000000000000000000000000000000000000000000000081526004016102179291906118f5565b60405180910390fd5b61022a338361100d565b1561057b576000826040516020016102429190611961565b604051602081830303815290604052905060006002338360405160200161026a929190611a07565b6040516020818303038152906040526040516102869190611a2f565b908152602001604051809103902080548060200260200160405190810160405280929190818152602001828054801561031457602002820191906000526020600020905b8160009054906101000a900473ffffffffffffffffffffffffffffffffffffffff1673ffffffffffffffffffffffffffffffffffffffff16815260200190600101908083116102ca575b5050505050905060005b8151811015610539578573ffffffffffffffffffffffffffffffffffffffff1682828151811061035157610350611a46565b5b602002602001015173ffffffffffffffffffffffffffffffffffffffff16036105265760023384604051602001610389929190611a07565b6040516020818303038152906040526040516103a59190611a2f565b9081526020016040518091039020600183516103c19190611aae565b815481106103d2576103d1611a46565b5b9060005260206000200160009054906101000a900473ffffffffffffffffffffffffffffffffffffffff1660023385604051602001610412929190611a07565b60405160208183030381529060405260405161042e9190611a2f565b9081526020016040518091039020828154811061044e5761044d611a46565b5b9060005260206000200160006101000a81548173ffffffffffffffffffffffffffffffffffffffff021916908373ffffffffffffffffffffffffffffffffffffffff160217905550600233846040516020016104ab929190611a07565b6040516020818303038152906040526040516104c79190611a2f565b90815260200160405180910390208054806104e5576104e4611ae2565b5b6001900381819060005260206000200160006101000a81549073ffffffffffffffffffffffffffffffffffffffff02191690559055600193505050506105ba565b808061053190611b11565b91505061031e565b508433856040517f9752411700000000000000000000000000000000000000000000000000000000815260040161057293929190611b59565b60405180910390fd5b33826040517f34fa87f70000000000000000000000000000000000000000000000000000000081526004016105b19291906118f5565b60405180910390fd5b92915050565b60006105cc338361100d565b156106f0576105dc3383856110f7565b15610622578233836040517fc7b5604700000000000000000000000000000000000000000000000000000000815260040161061993929190611b59565b60405180910390fd5b6000826040516020016106359190611961565b60405160208183030381529060405290506002338260405160200161065b929190611a07565b6040516020818303038152906040526040516106779190611a2f565b9081526020016040518091039020849080600181540180825580915050600190039060005260206000200160009091909190916101000a81548173ffffffffffffffffffffffffffffffffffffffff021916908373ffffffffffffffffffffffffffffffffffffffff160217905550600191505061072f565b33826040517f34fa87f70000000000000000000000000000000000000000000000000000000081526004016107269291906118f5565b60405180910390fd5b92915050565b6000610741338361100d565b6107ca57600160003373ffffffffffffffffffffffffffffffffffffffff1673ffffffffffffffffffffffffffffffffffffffff168152602001908152602001600020829080600181540180825580915050600190039060005260206000200160009091909190915090805190602001906107bd9291906112c0565b506107c833836105c0565b505b6000826040516020016107dd9190611961565b60405160208183030381529060405290508360003383604051602001610804929190611a07565b6040516020818303038152906040526040516108209190611a2f565b908152602001604051809103902090805190602001906108419291906112c0565b50600191505092915050565b60606000826040516020016108629190611961565b604051602081830303815290604052905061087e8484336110f7565b156109a15761088d848461100d565b1561096257600084826040516020016108a7929190611a07565b6040516020818303038152906040526040516108c39190611a2f565b908152602001604051809103902080546108dc90611bc6565b80601f016020809104026020016040519081016040528092919081815260200182805461090890611bc6565b80156109555780601f1061092a57610100808354040283529160200191610955565b820191906000526020600020905b81548152906001019060200180831161093857829003601f168201915b50505050509150506109e2565b83836040517f642697160000000000000000000000000000000000000000000000000000000081526004016109989291906118f5565b60405180910390fd5b3384846040517f975241170000000000000000000000000000000000000000000000000000000081526004016109d993929190611b59565b60405180910390fd5b92915050565b600080826040516020016109fc9190611961565b6040516020818303038152906040529050610a17338461100d565b15610d285760023382604051602001610a31929190611a07565b604051602081830303815290604052604051610a4d9190611a2f565b90815260200160405180910390206000610a679190611346565b60003382604051602001610a7c929190611a07565b604051602081830303815290604052604051610a989190611a2f565b90815260200160405180910390206000610ab29190611367565b60005b600160003373ffffffffffffffffffffffffffffffffffffffff1673ffffffffffffffffffffffffffffffffffffffff16815260200190815260200160002080549050811015610d22578380519060200120600160003373ffffffffffffffffffffffffffffffffffffffff1673ffffffffffffffffffffffffffffffffffffffff1681526020019081526020016000208281548110610b5857610b57611a46565b5b90600052602060002001604051610b6f9190611c8b565b604051809103902003610d0f57600160003373ffffffffffffffffffffffffffffffffffffffff1673ffffffffffffffffffffffffffffffffffffffff16815260200190815260200160002060018060003373ffffffffffffffffffffffffffffffffffffffff1673ffffffffffffffffffffffffffffffffffffffff16815260200190815260200160002080549050610c099190611aae565b81548110610c1a57610c19611a46565b5b90600052602060002001600160003373ffffffffffffffffffffffffffffffffffffffff1673ffffffffffffffffffffffffffffffffffffffff1681526020019081526020016000208281548110610c7557610c74611a46565b5b90600052602060002001908054610c8b90611bc6565b610c969291906113a7565b50600160003373ffffffffffffffffffffffffffffffffffffffff1673ffffffffffffffffffffffffffffffffffffffff168152602001908152602001600020805480610ce657610ce5611ae2565b5b600190038181906000526020600020016000610d029190611367565b9055600192505050610d69565b8080610d1a90611b11565b915050610ab5565b50610d67565b33836040517f34fa87f7000000000000000000000000000000000000000000000000000000008152600401610d5e9291906118f5565b60405180910390fd5b505b919050565b6000600160003373ffffffffffffffffffffffffffffffffffffffff1673ffffffffffffffffffffffffffffffffffffffff168152602001908152602001600020805480602002602001604051908101604052809291908181526020016000905b82821015610e7b578382906000526020600020018054610dee90611bc6565b80601f0160208091040260200160405190810160405280929190818152602001828054610e1a90611bc6565b8015610e675780601f10610e3c57610100808354040283529160200191610e67565b820191906000526020600020905b815481529060010190602001808311610e4a57829003601f168201915b505050505081526020019060010190610dcf565b50505050905060005b8151811015610ec457610eb0828281518110610ea357610ea2611a46565b5b60200260200101516109e8565b508080610ebc90611b11565b915050610e84565b5050565b6060610ed4338361100d565b15610fc957600082604051602001610eec9190611961565b604051602081830303815290604052905060023382604051602001610f12929190611a07565b604051602081830303815290604052604051610f2e9190611a2f565b9081526020016040518091039020805480602002602001604051908101604052809291908181526020018280548015610fbc57602002820191906000526020600020905b8160009054906101000a900473ffffffffffffffffffffffffffffffffffffffff1673ffffffffffffffffffffffffffffffffffffffff1681526020019060010190808311610f72575b5050505050915050611008565b33826040517f34fa87f7000000000000000000000000000000000000000000000000000000008152600401610fff9291906118f5565b60405180910390fd5b919050565b6000805b600160008573ffffffffffffffffffffffffffffffffffffffff1673ffffffffffffffffffffffffffffffffffffffff168152602001908152602001600020805490508110156110f0578280519060200120600160008673ffffffffffffffffffffffffffffffffffffffff1673ffffffffffffffffffffffffffffffffffffffff16815260200190815260200160002082815481106110b4576110b3611a46565b5b906000526020600020016040516110cb9190611c8b565b6040518091039020036110dd57600191505b80806110e890611b11565b915050611011565b5092915050565b6000611103848461100d565b156112785760008360405160200161111b9190611961565b6040516020818303038152906040529050600060028683604051602001611143929190611a07565b60405160208183030381529060405260405161115f9190611a2f565b90815260200160405180910390208054806020026020016040519081016040528092919081815260200182805480156111ed57602002820191906000526020600020905b8160009054906101000a900473ffffffffffffffffffffffffffffffffffffffff1673ffffffffffffffffffffffffffffffffffffffff16815260200190600101908083116111a3575b5050505050905060005b815181101561126c578473ffffffffffffffffffffffffffffffffffffffff1682828151811061122a57611229611a46565b5b602002602001015173ffffffffffffffffffffffffffffffffffffffff160361125957600193505050506112b9565b808061126490611b11565b9150506111f7565b506000925050506112b9565b8184846040517f975241170000000000000000000000000000000000000000000000000000000081526004016112b093929190611b59565b60405180910390fd5b9392505050565b8280546112cc90611bc6565b90600052602060002090601f0160209004810192826112ee5760008555611335565b82601f1061130757805160ff1916838001178555611335565b82800160010185558215611335579182015b82811115611334578251825591602001919060010190611319565b5b5090506113429190611434565b5090565b50805460008255906000526020600020908101906113649190611434565b50565b50805461137390611bc6565b6000825580601f1061138557506113a4565b601f0160209004906000526020600020908101906113a39190611434565b5b50565b8280546113b390611bc6565b90600052602060002090601f0160209004810192826113d55760008555611423565b82601f106113e65780548555611423565b8280016001018555821561142357600052602060002091601f016020900482015b82811115611422578254825591600101919060010190611407565b5b5090506114309190611434565b5090565b5b8082111561144d576000816000905550600101611435565b5090565b6000604051905090565b600080fd5b600080fd5b600073ffffffffffffffffffffffffffffffffffffffff82169050919050565b600061149082611465565b9050919050565b6114a081611485565b81146114ab57600080fd5b50565b6000813590506114bd81611497565b92915050565b600080fd5b600080fd5b6000601f19601f8301169050919050565b7f4e487b7100000000000000000000000000000000000000000000000000000000600052604160045260246000fd5b611516826114cd565b810181811067ffffffffffffffff82111715611535576115346114de565b5b80604052505050565b6000611548611451565b9050611554828261150d565b919050565b600067ffffffffffffffff821115611574576115736114de565b5b61157d826114cd565b9050602081019050919050565b82818337600083830152505050565b60006115ac6115a784611559565b61153e565b9050828152602081018484840111156115c8576115c76114c8565b5b6115d384828561158a565b509392505050565b600082601f8301126115f0576115ef6114c3565b5b8135611600848260208601611599565b91505092915050565b600080604083850312156116205761161f61145b565b5b600061162e858286016114ae565b925050602083013567ffffffffffffffff81111561164f5761164e611460565b5b61165b858286016115db565b9150509250929050565b60008115159050919050565b61167a81611665565b82525050565b60006020820190506116956000830184611671565b92915050565b600080604083850312156116b2576116b161145b565b5b600083013567ffffffffffffffff8111156116d0576116cf611460565b5b6116dc858286016115db565b925050602083013567ffffffffffffffff8111156116fd576116fc611460565b5b611709858286016115db565b9150509250929050565b600081519050919050565b600082825260208201905092915050565b60005b8381101561174d578082015181840152602081019050611732565b8381111561175c576000848401525b50505050565b600061176d82611713565b611777818561171e565b935061178781856020860161172f565b611790816114cd565b840191505092915050565b600060208201905081810360008301526117b58184611762565b905092915050565b6000602082840312156117d3576117d261145b565b5b600082013567ffffffffffffffff8111156117f1576117f0611460565b5b6117fd848285016115db565b91505092915050565b600081519050919050565b600082825260208201905092915050565b6000819050602082019050919050565b61183b81611485565b82525050565b600061184d8383611832565b60208301905092915050565b6000602082019050919050565b600061187182611806565b61187b8185611811565b935061188683611822565b8060005b838110156118b757815161189e8882611841565b97506118a983611859565b92505060018101905061188a565b5085935050505092915050565b600060208201905081810360008301526118de8184611866565b905092915050565b6118ef81611485565b82525050565b600060408201905061190a60008301856118e6565b818103602083015261191c8184611762565b90509392505050565b600081905092915050565b600061193b82611713565b6119458185611925565b935061195581856020860161172f565b80840191505092915050565b600061196d8284611930565b915081905092915050565b60008160601b9050919050565b600061199082611978565b9050919050565b60006119a282611985565b9050919050565b6119ba6119b582611485565b611997565b82525050565b600081519050919050565b600081905092915050565b60006119e1826119c0565b6119eb81856119cb565b93506119fb81856020860161172f565b80840191505092915050565b6000611a1382856119a9565b601482019150611a2382846119d6565b91508190509392505050565b6000611a3b82846119d6565b915081905092915050565b7f4e487b7100000000000000000000000000000000000000000000000000000000600052603260045260246000fd5b6000819050919050565b7f4e487b7100000000000000000000000000000000000000000000000000000000600052601160045260246000fd5b6000611ab982611a75565b9150611ac483611a75565b925082821015611ad757611ad6611a7f565b5b828203905092915050565b7f4e487b7100000000000000000000000000000000000000000000000000000000600052603160045260246000fd5b6000611b1c82611a75565b91507fffffffffffffffffffffffffffffffffffffffffffffffffffffffffffffffff8203611b4e57611b4d611a7f565b5b600182019050919050565b6000606082019050611b6e60008301866118e6565b611b7b60208301856118e6565b8181036040830152611b8d8184611762565b9050949350505050565b7f4e487b7100000000000000000000000000000000000000000000000000000000600052602260045260246000fd5b60006002820490506001821680611bde57607f821691505b602082108103611bf157611bf0611b97565b5b50919050565b60008190508160005260206000209050919050565b60008154611c1981611bc6565b611c2381866119cb565b94506001821660008114611c3e5760018114611c4f57611c82565b60ff19831686528186019350611c82565b611c5885611bf7565b60005b83811015611c7a57815481890152600182019150602081019050611c5b565b838801955050505b50505092915050565b6000611c978284611c0c565b91508190509291505056fea2646970667358221220fc56171eee7c6c628c41e9506313a7c91598101f98ac52f304f8db8e3dfcca2864736f6c634300080d0033",
  "immutableReferences": {},
  "source": "pragma solidity ^0.8.4;\r\n \r\n// These custom errors unfortunately do not display in the Truffle Console\r\n// https://github.com/trufflesuite/truffle/issues/4123\r\n\r\n/// Preferences not found for this address + H(key) combination.\r\n/// @param userAddress Address used.\r\n/// @param hashKey Hashed key used.\r\nerror PreferencesNotFound(address userAddress, string hashKey);\r\n\r\n/// This address + H(key) combination was not found.\r\n/// @param userAddress Address used.\r\n/// @param hashKey Hashed key used.\r\nerror KeyNotInUse(address userAddress, string hashKey);\r\n\r\n/// This address was not found in approvedAddresses for this address + H(key) combination.\r\n/// @param approvedAddress Approved Address used.\r\n/// @param userAddress Address used.\r\n/// @param hashKey Hashed key used.\r\nerror ApprovedAddressNotFound(address approvedAddress,address userAddress, string hashKey);\r\n\r\n/// Can't remove your own address from approved addresses.\r\n/// @param userAddress Your address.\r\n/// @param hashKey Hashed key used.\r\nerror CantRemoveOwnAddress(address userAddress, string hashKey);\r\n\r\n/// This address already exists approvedAddresses for this address + H(key) combination.\r\n/// @param approvedAddress Approved Address used.\r\n/// @param userAddress Address used.\r\n/// @param hashKey Hashed key used.\r\nerror ApprovedAddressAlreadyExists(address approvedAddress,address userAddress, string hashKey);\r\n \r\ncontract SITApreferences2{\r\n    mapping(bytes => string) private userpreferences; // Mapping bytes (address + key) to string of encrypted preferences\r\n    // Need to use bytes to be able to concatenate the address and key, should change later to a particular size bytes when we know address and key combined size\r\n\r\n    mapping(address => string[]) private usedKeys; // Mapping user's address to string array of the H(key)s in use for a user\r\n\r\n    mapping(bytes => address[]) private approvedAddresses; // Mapping address + H(key) to approved addresses that can read those preferences\r\n\r\n    constructor(){}\r\n\r\n    function setPreferences(string memory preferences, string memory key) public returns(bool success){ \r\n      // Stores user's preferences in the contract under the key, can only modify your own preferences\r\n\r\n      if (!(keyInUse(msg.sender,key))){ \r\n        // If the key isn't already in use it needs to be added to the array in the usedKey mapping\r\n        usedKeys[msg.sender].push(key);\r\n        addApprovedAddress(msg.sender, key); // Adds the user's address to approved addresses the first time a key is used.\r\n      }\r\n\r\n      bytes memory keyBytes = abi.encodePacked(key); // Convert string parameter for the secret key to bytes\r\n      userpreferences[abi.encodePacked(msg.sender, keyBytes)] = preferences; // Store the preference array mapped under address + secret key as the mapping key\r\n      return(true);\r\n    }\r\n\r\n    function getPreferences(address userAddress,string memory key) public view returns(string memory preferences){\r\n      // Attempts to retrieve preferences stored under the provided address + H(key) combination\r\n      bytes memory keyBytes = abi.encodePacked(key); // Convert string parameter for the secret key to bytes\r\n\r\n      if(approvedAddressExists(userAddress, key, msg.sender)){\r\n        // Only addresses approved by the user are allowed to retrieve the encrypted preferences\r\n        if(keyInUse(userAddress, key)){\r\n          // Make sure the key is in use (and thus the preferences attempting to be retrieved exist)\r\n          return(userpreferences[abi.encodePacked(userAddress, keyBytes)]);\r\n        }\r\n        else{\r\n          // Return error indicating this preferences set isn't found\r\n          revert PreferencesNotFound(userAddress, key);\r\n        }\r\n      }\r\n      else{\r\n        // Return error indicating the user isn't approved to retrieve these preferences\r\n        revert ApprovedAddressNotFound(msg.sender,userAddress,key);\r\n      }\r\n    }\r\n\r\n    function deletePreferences(string memory keyHash) public returns(bool success){\r\n      // Attempts to delete a user's preferences stored under the provided H(key), only callable on your own preferences\r\n      bytes memory keyBytes = abi.encodePacked(keyHash); // Convert string parameter for the secret key to bytes\r\n\r\n      // Delete just leaves all the entries under these keys as the default ('' for strings, and empty arrays)\r\n      // getPreferences, getApprovedAddresses etc don't work as the key is no longer in use\r\n      if(keyInUse(msg.sender,keyHash)){\r\n        // Only delete preferences if the key is use\r\n        delete approvedAddresses[abi.encodePacked(msg.sender, keyBytes)];\r\n        delete userpreferences[abi.encodePacked(msg.sender, keyBytes)]; \r\n\r\n        for(uint i; i < usedKeys[msg.sender].length; i++){ // Iterate through the user's keys\r\n          if (keccak256(bytes(usedKeys[msg.sender][i])) == keccak256(bytes(keyHash))){ // Compare the key in usedKeys array and the key the user has entered\r\n            usedKeys[msg.sender][i] = usedKeys[msg.sender][(usedKeys[msg.sender].length) - 1]; // Set the key to be deleted equal to the last key in the array\r\n            usedKeys[msg.sender].pop(); // Remove the last key in the array\r\n            return(true);\r\n          }\r\n        }\r\n      }\r\n      else{\r\n        // Return error indicating the key isn't in use\r\n        revert KeyNotInUse(msg.sender, keyHash);\r\n      }\r\n\r\n    }\r\n\r\n    function keyInUse(address userAddress, string memory keyHash) private view returns(bool keyExists){ \r\n      // Helper function to check if a key already exists in keysUsed\r\n      keyExists = false; // Boolean value for whether the key exists or not\r\n\r\n      for(uint i; i < usedKeys[userAddress].length; i++){ // Iterate through the user's keys\r\n        if (keccak256(bytes(usedKeys[userAddress][i])) == keccak256(bytes(keyHash))){ // Compare the key in usedKeys array and the key the user has entered\r\n          keyExists = true; \r\n        }\r\n      }\r\n\r\n      return(keyExists);\r\n    }\r\n\r\n    function addApprovedAddress(address approvedAddress, string memory keyHash) public returns(bool success){\r\n      // Attempts to add an approved address for the provided address + H(key) combination, only callable on own preferences\r\n      \r\n      if(keyInUse(msg.sender,keyHash)){\r\n        // Only add approved address if the preferences exist\r\n        if (approvedAddressExists(msg.sender, keyHash,approvedAddress)){\r\n          // Prevents duplicate entries in approvedAddresses, returns error\r\n          revert ApprovedAddressAlreadyExists(approvedAddress,msg.sender,keyHash);\r\n        }\r\n        // If approved address isn't already present\r\n        bytes memory keyBytes = abi.encodePacked(keyHash); // Convert string parameter for the secret key to bytes\r\n        approvedAddresses[abi.encodePacked(msg.sender, keyBytes)].push(approvedAddress); // Add approved address to list\r\n        return (true);\r\n      }\r\n      else{\r\n        // Returns error if key doesn't exist\r\n        revert KeyNotInUse(msg.sender, keyHash);\r\n      }\r\n\r\n    }\r\n\r\n    function getApprovedAddresses(string memory keyHash) public view returns(address[] memory addresses){\r\n      // Gets list of approved addresses for address + H(key) combination, only callable on own preferences\r\n       if(keyInUse(msg.sender,keyHash)){\r\n         // Only retrieve approved addresses if the key is in use\r\n        bytes memory keyBytes = abi.encodePacked(keyHash);\r\n        return(approvedAddresses[abi.encodePacked(msg.sender, keyBytes)]);\r\n       }\r\n       else{\r\n         // Returns error if key doesn't exist\r\n         revert KeyNotInUse(msg.sender, keyHash);\r\n       }\r\n    }\r\n\r\n    function removeApprovedAddress(address removeAddress, string memory keyHash) public returns (bool success){ \r\n      // Removes an approved address for address + H(key) combination, only callable on own preferences\r\n\r\n      if(removeAddress == msg.sender){\r\n        // User not allowed to remove their own address\r\n        revert CantRemoveOwnAddress(msg.sender, keyHash);\r\n      }\r\n\r\n      if(keyInUse(msg.sender,keyHash)){ // Don't waste computing power (and thus Ethereum) looping through if the key isn't being used\r\n        bytes memory keyBytes = abi.encodePacked(keyHash);\r\n        address[] memory approvedAddressList = approvedAddresses[abi.encodePacked(msg.sender, keyBytes)]; // Gets the list to reduce the complexity of the for loop\r\n        for(uint i; i < approvedAddressList.length; i++){  // Iterates through the users approved addresses\r\n          if (approvedAddressList[i] == removeAddress){ // Attempts to find the address to be removed\r\n            approvedAddresses[abi.encodePacked(msg.sender, keyBytes)][i] = approvedAddresses[abi.encodePacked(msg.sender, keyBytes)][approvedAddressList.length - 1]; // Sets the index of address to be removed to be equal to the last address in the array\r\n            approvedAddresses[abi.encodePacked(msg.sender, keyBytes)].pop(); // Pops the last address in the array, the last address now occupies [i] \r\n            return (true);\r\n          }\r\n        }\r\n        // If we loop through all approved addresses without finding it return error\r\n        revert ApprovedAddressNotFound(removeAddress,msg.sender,keyHash);\r\n      }\r\n      else{\r\n        // Returns error if key doesn't exist\r\n        revert KeyNotInUse(msg.sender, keyHash);\r\n      }\r\n      \r\n    }\r\n\r\n    function approvedAddressExists(address userAddress, string memory keyHash, address approvedAddress) private view returns (bool success){ \r\n      // Helper function which checks if an address exists in approved addresses for address + H(key) combination\r\n\r\n      if(keyInUse(userAddress,keyHash)){ // Don't waste computing power (and thus Ethereum) looping through if the key isn't being used\r\n        bytes memory keyBytes = abi.encodePacked(keyHash);\r\n        address[] memory approvedAddressList = approvedAddresses[abi.encodePacked(userAddress, keyBytes)];\r\n        for(uint i; i < approvedAddressList.length; i++){  // Iterates through the users approved addresses\r\n          if (approvedAddressList[i] == approvedAddress){ // Checks if the address exists in approvedAddresses\r\n            return(true);\r\n          }\r\n        }\r\n        return(false);\r\n      }\r\n      else{\r\n        // Provide Approved Address not found error instead of key not in use error to prevent leaking whether a user is using \r\n        // a certain key (necessary as this function is called in getPreferences, which can be called by not just the preferences owner)\r\n        revert ApprovedAddressNotFound(approvedAddress,userAddress,keyHash); \r\n      }\r\n\r\n    }\r\n\r\n    function deleteAllPreferences() public{\r\n      // The nuclear option. Allows user to delete all preference sets stored for them without providing the key.\r\n      // For use in case a user wants to delete a preference set but has forgotten the key\r\n\r\n      string[] memory keysInUse = usedKeys[msg.sender]; // Gets all the keys the user has\r\n\r\n      for(uint i; i < keysInUse.length; i++){ // Iterates throigh all the keys the user has\r\n        deletePreferences(keysInUse[i]); // Deletes the preference set under this key\r\n      }\r\n    }\r\n\r\n}",
  "sourcePath": "C:\\Users\\joelg\\Desktop\\react\\contracts\\SITApreferences2.sol",
  "compiler": {
    "name": "solc",
    "version": "0.8.13+commit.abaa5c0e.Emscripten.clang"
  },
  "schemaVersion": "3.4.4",
  "updatedAt": "2022-03-31T13:29:42.031Z",
  "networkType": "ethereum",
  "devdoc": {
    "errors": {
      "ApprovedAddressAlreadyExists(address,address,string)": [
        {
          "params": {
            "approvedAddress": "Approved Address used.",
            "hashKey": "Hashed key used.",
            "userAddress": "Address used."
          }
        }
      ],
      "ApprovedAddressNotFound(address,address,string)": [
        {
          "params": {
            "approvedAddress": "Approved Address used.",
            "hashKey": "Hashed key used.",
            "userAddress": "Address used."
          }
        }
      ],
      "CantRemoveOwnAddress(address,string)": [
        {
          "params": {
            "hashKey": "Hashed key used.",
            "userAddress": "Your address."
          }
        }
      ],
      "KeyNotInUse(address,string)": [
        {
          "params": {
            "hashKey": "Hashed key used.",
            "userAddress": "Address used."
          }
        }
      ],
      "PreferencesNotFound(address,string)": [
        {
          "params": {
            "hashKey": "Hashed key used.",
            "userAddress": "Address used."
          }
        }
      ]
    },
    "kind": "dev",
    "methods": {},
    "version": 1
  },
  "userdoc": {
    "errors": {
      "ApprovedAddressAlreadyExists(address,address,string)": [
        {
          "notice": "This address already exists approvedAddresses for this address + H(key) combination."
        }
      ],
      "ApprovedAddressNotFound(address,address,string)": [
        {
          "notice": "This address was not found in approvedAddresses for this address + H(key) combination."
        }
      ],
      "CantRemoveOwnAddress(address,string)": [
        {
          "notice": "Can't remove your own address from approved addresses."
        }
      ],
      "KeyNotInUse(address,string)": [
        {
          "notice": "This address + H(key) combination was not found."
        }
      ],
      "PreferencesNotFound(address,string)": [
        {
          "notice": "Preferences not found for this address + H(key) combination."
        }
      ]
    },
    "kind": "user",
    "methods": {},
    "version": 1
  }
}