{
  "contractName": "SITApreferences2",
  "abi": [
    {
      "inputs": [],
      "stateMutability": "nonpayable",
      "type": "constructor"
    },
    {
      "inputs": [
        {
          "internalType": "address",
          "name": "approvedAddress",
          "type": "address"
        },
        {
          "internalType": "address",
          "name": "userAddress",
          "type": "address"
        },
        {
          "internalType": "string",
          "name": "hashKey",
          "type": "string"
        }
      ],
      "name": "ApprovedAddressNotFound",
      "type": "error"
    },
    {
      "inputs": [
        {
          "internalType": "address",
          "name": "userAddress",
          "type": "address"
        },
        {
          "internalType": "string",
          "name": "hashKey",
          "type": "string"
        }
      ],
      "name": "KeyNotInUse",
      "type": "error"
    },
    {
      "inputs": [
        {
          "internalType": "address",
          "name": "userAddress",
          "type": "address"
        },
        {
          "internalType": "string",
          "name": "hashKey",
          "type": "string"
        }
      ],
      "name": "PreferencesNotFound",
      "type": "error"
    },
    {
      "inputs": [
        {
          "internalType": "string",
          "name": "preferences",
          "type": "string"
        },
        {
          "internalType": "string",
          "name": "key",
          "type": "string"
        }
      ],
      "name": "setPreferences",
      "outputs": [
        {
          "internalType": "bool",
          "name": "success",
          "type": "bool"
        }
      ],
      "stateMutability": "nonpayable",
      "type": "function"
    },
    {
      "inputs": [
        {
          "internalType": "address",
          "name": "userAddress",
          "type": "address"
        },
        {
          "internalType": "string",
          "name": "key",
          "type": "string"
        }
      ],
      "name": "getPreferences",
      "outputs": [
        {
          "internalType": "string",
          "name": "preferences",
          "type": "string"
        }
      ],
      "stateMutability": "nonpayable",
      "type": "function"
    },
    {
      "inputs": [
        {
          "internalType": "string",
          "name": "keyHash",
          "type": "string"
        }
      ],
      "name": "deletePreferences",
      "outputs": [
        {
          "internalType": "bool",
          "name": "success",
          "type": "bool"
        }
      ],
      "stateMutability": "nonpayable",
      "type": "function"
    },
    {
      "inputs": [
        {
          "internalType": "address",
          "name": "approvedAddress",
          "type": "address"
        },
        {
          "internalType": "string",
          "name": "keyHash",
          "type": "string"
        }
      ],
      "name": "addApprovedAddress",
      "outputs": [
        {
          "internalType": "bool",
          "name": "success",
          "type": "bool"
        }
      ],
      "stateMutability": "nonpayable",
      "type": "function"
    },
    {
      "inputs": [
        {
          "internalType": "string",
          "name": "keyHash",
          "type": "string"
        }
      ],
      "name": "getApprovedAddresses",
      "outputs": [
        {
          "internalType": "address[]",
          "name": "addresses",
          "type": "address[]"
        }
      ],
      "stateMutability": "nonpayable",
      "type": "function"
    },
    {
      "inputs": [
        {
          "internalType": "address",
          "name": "removeAddress",
          "type": "address"
        },
        {
          "internalType": "string",
          "name": "keyHash",
          "type": "string"
        }
      ],
      "name": "removeApprovedAddress",
      "outputs": [
        {
          "internalType": "bool",
          "name": "success",
          "type": "bool"
        }
      ],
      "stateMutability": "nonpayable",
      "type": "function"
    }
  ],
  "bytecode": "0x608060405234801561001057600080fd5b50611a3e806100206000396000f3fe608060405234801561001057600080fd5b50600436106100625760003560e01c806303a74a9c1461006757806315bd38161461009757806320103dde146100c75780634bd92bce146100f7578063c056047614610127578063ec53f6c214610157575b600080fd5b610081600480360381019061007c919061136f565b610187565b60405161008e91906113e6565b60405180910390f35b6100b160048036038101906100ac919061136f565b610529565b6040516100be91906113e6565b60405180910390f35b6100e160048036038101906100dc9190611401565b61064d565b6040516100ee91906113e6565b60405180910390f35b610111600480360381019061010c919061136f565b61076b565b60405161011e9190611501565b60405180910390f35b610141600480360381019061013c9190611523565b610906565b60405161014e91906113e6565b60405180910390f35b610171600480360381019061016c9190611523565b610c2e565b60405161017e919061162a565b60405180910390f35b60006101933383610d73565b156104e4576000826040516020016101ab9190611688565b60405160208183030381529060405290506000600233836040516020016101d392919061172e565b6040516020818303038152906040526040516101ef9190611756565b908152602001604051809103902080548060200260200160405190810160405280929190818152602001828054801561027d57602002820191906000526020600020905b8160009054906101000a900473ffffffffffffffffffffffffffffffffffffffff1673ffffffffffffffffffffffffffffffffffffffff1681526020019060010190808311610233575b5050505050905060005b81518110156104a2578573ffffffffffffffffffffffffffffffffffffffff168282815181106102ba576102b961176d565b5b602002602001015173ffffffffffffffffffffffffffffffffffffffff160361048f57600233846040516020016102f292919061172e565b60405160208183030381529060405260405161030e9190611756565b90815260200160405180910390206001835161032a91906117d5565b8154811061033b5761033a61176d565b5b9060005260206000200160009054906101000a900473ffffffffffffffffffffffffffffffffffffffff166002338560405160200161037b92919061172e565b6040516020818303038152906040526040516103979190611756565b908152602001604051809103902082815481106103b7576103b661176d565b5b9060005260206000200160006101000a81548173ffffffffffffffffffffffffffffffffffffffff021916908373ffffffffffffffffffffffffffffffffffffffff1602179055506002338460405160200161041492919061172e565b6040516020818303038152906040526040516104309190611756565b908152602001604051809103902080548061044e5761044d611809565b5b6001900381819060005260206000200160006101000a81549073ffffffffffffffffffffffffffffffffffffffff0219169055905560019350505050610523565b808061049a90611838565b915050610287565b508433856040517f975241170000000000000000000000000000000000000000000000000000000081526004016104db9392919061188f565b60405180910390fd5b33826040517f34fa87f700000000000000000000000000000000000000000000000000000000815260040161051a9291906118cd565b60405180910390fd5b92915050565b60006105353383610d73565b156106085760008260405160200161054d9190611688565b60405160208183030381529060405290506002338260405160200161057392919061172e565b60405160208183030381529060405260405161058f9190611756565b9081526020016040518091039020849080600181540180825580915050600190039060005260206000200160009091909190916101000a81548173ffffffffffffffffffffffffffffffffffffffff021916908373ffffffffffffffffffffffffffffffffffffffff1602179055506001915050610647565b33826040517f34fa87f700000000000000000000000000000000000000000000000000000000815260040161063e9291906118cd565b60405180910390fd5b92915050565b600080151561065c3384610d73565b1515036106e857600160003373ffffffffffffffffffffffffffffffffffffffff1673ffffffffffffffffffffffffffffffffffffffff168152602001908152602001600020829080600181540180825580915050600190039060005260206000200160009091909190915090805190602001906106db929190611026565b506106e63383610529565b505b6000826040516020016106fb9190611688565b6040516020818303038152906040529050836000338360405160200161072292919061172e565b60405160208183030381529060405260405161073e9190611756565b9081526020016040518091039020908051906020019061075f929190611026565b50600191505092915050565b60606000826040516020016107809190611688565b604051602081830303815290604052905061079c848433610e5d565b156108bf576107ab8484610d73565b1561088057600084826040516020016107c592919061172e565b6040516020818303038152906040526040516107e19190611756565b908152602001604051809103902080546107fa9061192c565b80601f01602080910402602001604051908101604052809291908181526020018280546108269061192c565b80156108735780601f1061084857610100808354040283529160200191610873565b820191906000526020600020905b81548152906001019060200180831161085657829003601f168201915b5050505050915050610900565b83836040517f642697160000000000000000000000000000000000000000000000000000000081526004016108b69291906118cd565b60405180910390fd5b3384846040517f975241170000000000000000000000000000000000000000000000000000000081526004016108f79392919061188f565b60405180910390fd5b92915050565b6000808260405160200161091a9190611688565b60405160208183030381529060405290506002338260405160200161094092919061172e565b60405160208183030381529060405260405161095c9190611756565b9081526020016040518091039020600061097691906110ac565b6000338260405160200161098b92919061172e565b6040516020818303038152906040526040516109a79190611756565b908152602001604051809103902060006109c191906110cd565b60005b600160003373ffffffffffffffffffffffffffffffffffffffff1673ffffffffffffffffffffffffffffffffffffffff16815260200190815260200160002080549050811015610c27578380519060200120600160003373ffffffffffffffffffffffffffffffffffffffff1673ffffffffffffffffffffffffffffffffffffffff1681526020019081526020016000208281548110610a6757610a6661176d565b5b90600052602060002001604051610a7e91906119f1565b604051809103902003610c1457600160003373ffffffffffffffffffffffffffffffffffffffff1673ffffffffffffffffffffffffffffffffffffffff16815260200190815260200160002060018060003373ffffffffffffffffffffffffffffffffffffffff1673ffffffffffffffffffffffffffffffffffffffff16815260200190815260200160002080549050610b1891906117d5565b81548110610b2957610b2861176d565b5b90600052602060002001600160003373ffffffffffffffffffffffffffffffffffffffff1673ffffffffffffffffffffffffffffffffffffffff1681526020019081526020016000208281548110610b8457610b8361176d565b5b90600052602060002001908054610b9a9061192c565b610ba592919061110d565b50600160003373ffffffffffffffffffffffffffffffffffffffff1673ffffffffffffffffffffffffffffffffffffffff168152602001908152602001600020805480610bf557610bf4611809565b5b600190038181906000526020600020016000610c1191906110cd565b90555b8080610c1f90611838565b9150506109c4565b5050919050565b6060610c3a3383610d73565b15610d2f57600082604051602001610c529190611688565b604051602081830303815290604052905060023382604051602001610c7892919061172e565b604051602081830303815290604052604051610c949190611756565b9081526020016040518091039020805480602002602001604051908101604052809291908181526020018280548015610d2257602002820191906000526020600020905b8160009054906101000a900473ffffffffffffffffffffffffffffffffffffffff1673ffffffffffffffffffffffffffffffffffffffff1681526020019060010190808311610cd8575b5050505050915050610d6e565b33826040517f34fa87f7000000000000000000000000000000000000000000000000000000008152600401610d659291906118cd565b60405180910390fd5b919050565b6000805b600160008573ffffffffffffffffffffffffffffffffffffffff1673ffffffffffffffffffffffffffffffffffffffff16815260200190815260200160002080549050811015610e56578280519060200120600160008673ffffffffffffffffffffffffffffffffffffffff1673ffffffffffffffffffffffffffffffffffffffff1681526020019081526020016000208281548110610e1a57610e1961176d565b5b90600052602060002001604051610e3191906119f1565b604051809103902003610e4357600191505b8080610e4e90611838565b915050610d77565b5092915050565b6000610e698484610d73565b15610fde57600083604051602001610e819190611688565b6040516020818303038152906040529050600060028683604051602001610ea992919061172e565b604051602081830303815290604052604051610ec59190611756565b9081526020016040518091039020805480602002602001604051908101604052809291908181526020018280548015610f5357602002820191906000526020600020905b8160009054906101000a900473ffffffffffffffffffffffffffffffffffffffff1673ffffffffffffffffffffffffffffffffffffffff1681526020019060010190808311610f09575b5050505050905060005b8151811015610fd2578473ffffffffffffffffffffffffffffffffffffffff16828281518110610f9057610f8f61176d565b5b602002602001015173ffffffffffffffffffffffffffffffffffffffff1603610fbf576001935050505061101f565b8080610fca90611838565b915050610f5d565b5060009250505061101f565b8184846040517f975241170000000000000000000000000000000000000000000000000000000081526004016110169392919061188f565b60405180910390fd5b9392505050565b8280546110329061192c565b90600052602060002090601f016020900481019282611054576000855561109b565b82601f1061106d57805160ff191683800117855561109b565b8280016001018555821561109b579182015b8281111561109a57825182559160200191906001019061107f565b5b5090506110a8919061119a565b5090565b50805460008255906000526020600020908101906110ca919061119a565b50565b5080546110d99061192c565b6000825580601f106110eb575061110a565b601f016020900490600052602060002090810190611109919061119a565b5b50565b8280546111199061192c565b90600052602060002090601f01602090048101928261113b5760008555611189565b82601f1061114c5780548555611189565b8280016001018555821561118957600052602060002091601f016020900482015b8281111561118857825482559160010191906001019061116d565b5b509050611196919061119a565b5090565b5b808211156111b357600081600090555060010161119b565b5090565b6000604051905090565b600080fd5b600080fd5b600073ffffffffffffffffffffffffffffffffffffffff82169050919050565b60006111f6826111cb565b9050919050565b611206816111eb565b811461121157600080fd5b50565b600081359050611223816111fd565b92915050565b600080fd5b600080fd5b6000601f19601f8301169050919050565b7f4e487b7100000000000000000000000000000000000000000000000000000000600052604160045260246000fd5b61127c82611233565b810181811067ffffffffffffffff8211171561129b5761129a611244565b5b80604052505050565b60006112ae6111b7565b90506112ba8282611273565b919050565b600067ffffffffffffffff8211156112da576112d9611244565b5b6112e382611233565b9050602081019050919050565b82818337600083830152505050565b600061131261130d846112bf565b6112a4565b90508281526020810184848401111561132e5761132d61122e565b5b6113398482856112f0565b509392505050565b600082601f83011261135657611355611229565b5b81356113668482602086016112ff565b91505092915050565b60008060408385031215611386576113856111c1565b5b600061139485828601611214565b925050602083013567ffffffffffffffff8111156113b5576113b46111c6565b5b6113c185828601611341565b9150509250929050565b60008115159050919050565b6113e0816113cb565b82525050565b60006020820190506113fb60008301846113d7565b92915050565b60008060408385031215611418576114176111c1565b5b600083013567ffffffffffffffff811115611436576114356111c6565b5b61144285828601611341565b925050602083013567ffffffffffffffff811115611463576114626111c6565b5b61146f85828601611341565b9150509250929050565b600081519050919050565b600082825260208201905092915050565b60005b838110156114b3578082015181840152602081019050611498565b838111156114c2576000848401525b50505050565b60006114d382611479565b6114dd8185611484565b93506114ed818560208601611495565b6114f681611233565b840191505092915050565b6000602082019050818103600083015261151b81846114c8565b905092915050565b600060208284031215611539576115386111c1565b5b600082013567ffffffffffffffff811115611557576115566111c6565b5b61156384828501611341565b91505092915050565b600081519050919050565b600082825260208201905092915050565b6000819050602082019050919050565b6115a1816111eb565b82525050565b60006115b38383611598565b60208301905092915050565b6000602082019050919050565b60006115d78261156c565b6115e18185611577565b93506115ec83611588565b8060005b8381101561161d57815161160488826115a7565b975061160f836115bf565b9250506001810190506115f0565b5085935050505092915050565b6000602082019050818103600083015261164481846115cc565b905092915050565b600081905092915050565b600061166282611479565b61166c818561164c565b935061167c818560208601611495565b80840191505092915050565b60006116948284611657565b915081905092915050565b60008160601b9050919050565b60006116b78261169f565b9050919050565b60006116c9826116ac565b9050919050565b6116e16116dc826111eb565b6116be565b82525050565b600081519050919050565b600081905092915050565b6000611708826116e7565b61171281856116f2565b9350611722818560208601611495565b80840191505092915050565b600061173a82856116d0565b60148201915061174a82846116fd565b91508190509392505050565b600061176282846116fd565b915081905092915050565b7f4e487b7100000000000000000000000000000000000000000000000000000000600052603260045260246000fd5b6000819050919050565b7f4e487b7100000000000000000000000000000000000000000000000000000000600052601160045260246000fd5b60006117e08261179c565b91506117eb8361179c565b9250828210156117fe576117fd6117a6565b5b828203905092915050565b7f4e487b7100000000000000000000000000000000000000000000000000000000600052603160045260246000fd5b60006118438261179c565b91507fffffffffffffffffffffffffffffffffffffffffffffffffffffffffffffffff8203611875576118746117a6565b5b600182019050919050565b611889816111eb565b82525050565b60006060820190506118a46000830186611880565b6118b16020830185611880565b81810360408301526118c381846114c8565b9050949350505050565b60006040820190506118e26000830185611880565b81810360208301526118f481846114c8565b90509392505050565b7f4e487b7100000000000000000000000000000000000000000000000000000000600052602260045260246000fd5b6000600282049050600182168061194457607f821691505b602082108103611957576119566118fd565b5b50919050565b60008190508160005260206000209050919050565b6000815461197f8161192c565b61198981866116f2565b945060018216600081146119a457600181146119b5576119e8565b60ff198316865281860193506119e8565b6119be8561195d565b60005b838110156119e0578154818901526001820191506020810190506119c1565b838801955050505b50505092915050565b60006119fd8284611972565b91508190509291505056fea2646970667358221220fdaec7db6d2d872aa8b6e6c2bfaf7e24b85642de6b0ae98656acaa5b1752031864736f6c634300080d0033",
  "immutableReferences": {},
  "source": "pragma solidity ^0.8.4;\r\n \r\n// These custom errors unfortunately do not display in the Truffle Console\r\n// https://github.com/trufflesuite/truffle/issues/4123\r\n\r\n/// Preferences not found for this address + H(key) combination.\r\n/// @param userAddress Address used.\r\n/// @param hashKey Hashed key used.\r\nerror PreferencesNotFound(address userAddress, string hashKey);\r\n\r\n/// This address + H(key) combination was not found.\r\n/// @param userAddress Address used.\r\n/// @param hashKey Hashed key used.\r\nerror KeyNotInUse(address userAddress, string hashKey);\r\n\r\n/// This address was not found in approvedAddresses for this address + H(key) combination.\r\n/// @param approvedAddress Approved Address used.\r\n/// @param userAddress Address used.\r\n/// @param hashKey Hashed key used.\r\nerror ApprovedAddressNotFound(address approvedAddress,address userAddress, string hashKey);\r\n \r\ncontract SITApreferences2{\r\n    mapping(bytes => string) private userpreferences; // Mapping bytes (address + key) as you cant use struct or array as mapping keys\r\n    // Need to use bytes to be able to concatenate the address and key, should change later to a particular size bytes when we know address and key combined size\r\n\r\n    mapping(address => string[]) private usedKeys; // String array of the H(key) in use for a user\r\n\r\n    mapping(bytes => address[]) private approvedAddresses; // Mapping linking address + H(key) to approved addresses\r\n\r\n    constructor(){}\r\n\r\n    function setPreferences(string memory preferences, string memory key) public returns(bool success){\r\n      // Require statement here to ensure all dimensions are 0-4\r\n\r\n      if (keyInUse(msg.sender,key) == false){ // If the key isn't already in use it needs to be added to the array in the usedKey mapping\r\n        usedKeys[msg.sender].push(key);\r\n        addApprovedAddress(msg.sender, key); // Adds the user's address to approved addresses the first time a key is used.\r\n      }\r\n\r\n      bytes memory keyBytes = abi.encodePacked(key); // Convert string parameter for the secret key to bytes\r\n      userpreferences[abi.encodePacked(msg.sender, keyBytes)] = preferences; // Store the preference array mapped under address + secret key as the mapping key\r\n      return(true); // Need to return upon success of setting, but need require statement\r\n    }\r\n\r\n    function getPreferences(address userAddress,string memory key) public returns(string memory preferences){\r\n      bytes memory keyBytes = abi.encodePacked(key); // Convert string parameter for the secret key to bytes\r\n\r\n      if(approvedAddressExists(userAddress, key, msg.sender)){\r\n        if(keyInUse(userAddress, key)){\r\n          return(userpreferences[abi.encodePacked(userAddress, keyBytes)]);\r\n        }\r\n        else{\r\n          revert PreferencesNotFound(userAddress, key);\r\n        }\r\n      }\r\n      else{\r\n        revert ApprovedAddressNotFound(msg.sender,userAddress,key);\r\n      }\r\n    }\r\n\r\n    function deletePreferences(string memory keyHash) public returns(bool success){\r\n      bytes memory keyBytes = abi.encodePacked(keyHash); // Convert string parameter for the secret key to bytes\r\n      // Delete just leaves all the entries under these keys as the default ('' for strings, and empty arrays)\r\n      // getPreferences, getApprovedAddresses etc don't work\r\n      delete approvedAddresses[abi.encodePacked(msg.sender, keyBytes)];\r\n      delete userpreferences[abi.encodePacked(msg.sender, keyBytes)]; \r\n\r\n      for(uint i; i < usedKeys[msg.sender].length; i++){ // Iterate through the user's keys\r\n        if (keccak256(bytes(usedKeys[msg.sender][i])) == keccak256(bytes(keyHash))){ // Compare the key in usedKeys array and the key the user has entered\r\n          usedKeys[msg.sender][i] = usedKeys[msg.sender][(usedKeys[msg.sender].length) - 1];\r\n          usedKeys[msg.sender].pop(); \r\n        }\r\n      }\r\n    }\r\n\r\n\r\n\r\n    function keyInUse(address userAddress, string memory keyHash) private returns(bool keyExists){ // Helper function to check if a key already exists in keysUsed\r\n      keyExists = false; // Boolean value for whether the key exists yet or not\r\n\r\n      for(uint i; i < usedKeys[userAddress].length; i++){ // Iterate through the user's keys\r\n        if (keccak256(bytes(usedKeys[userAddress][i])) == keccak256(bytes(keyHash))){ // Compare the key in usedKeys array and the key the user has entered\r\n          keyExists = true; \r\n        }\r\n      }\r\n\r\n      return(keyExists);\r\n    }\r\n\r\n    function addApprovedAddress(address approvedAddress, string memory keyHash) public returns(bool success){\r\n      if(keyInUse(msg.sender,keyHash)){\r\n        bytes memory keyBytes = abi.encodePacked(keyHash);\r\n        approvedAddresses[abi.encodePacked(msg.sender, keyBytes)].push(approvedAddress);\r\n        return (true);\r\n      }\r\n      else{\r\n        revert KeyNotInUse(msg.sender, keyHash);\r\n      }\r\n\r\n    }\r\n\r\n    function getApprovedAddresses(string memory keyHash) public returns(address[] memory addresses){\r\n       if(keyInUse(msg.sender,keyHash)){\r\n        bytes memory keyBytes = abi.encodePacked(keyHash);\r\n        return(approvedAddresses[abi.encodePacked(msg.sender, keyBytes)]);\r\n       }\r\n       else{\r\n         revert KeyNotInUse(msg.sender, keyHash);\r\n       }\r\n    }\r\n\r\n    function removeApprovedAddress(address removeAddress, string memory keyHash) public returns (bool success){ \r\n      if(keyInUse(msg.sender,keyHash)){ // Don't waste computing power (and thus Ethereum) looping through if the key isn't being used\r\n        bytes memory keyBytes = abi.encodePacked(keyHash);\r\n        address[] memory approvedAddressList = approvedAddresses[abi.encodePacked(msg.sender, keyBytes)]; // Gets the list to reduce the complexity of the for loop\r\n        for(uint i; i < approvedAddressList.length; i++){  // Iterates through the users approved addresses\r\n          if (approvedAddressList[i] == removeAddress){ // Attempts to find the address to be removed\r\n            approvedAddresses[abi.encodePacked(msg.sender, keyBytes)][i] = approvedAddresses[abi.encodePacked(msg.sender, keyBytes)][approvedAddressList.length - 1]; // Sets the index of address to be removed to be equal to the last address in the array\r\n            approvedAddresses[abi.encodePacked(msg.sender, keyBytes)].pop(); // Pops the last address in the array, the last address now occupies [i] \r\n            return (true);\r\n          }\r\n        }\r\n        revert ApprovedAddressNotFound(removeAddress,msg.sender,keyHash);\r\n      }\r\n      else{\r\n        revert KeyNotInUse(msg.sender, keyHash);\r\n      }\r\n      \r\n    }\r\n\r\n    function approvedAddressExists(address userAddress, string memory keyHash, address approvedAddress) private returns (bool success){ // Very similar code to remove but not sure remove could use this\r\n      if(keyInUse(userAddress,keyHash)){ // Don't waste computing power (and thus Ethereum) looping through if the key isn't being used\r\n        bytes memory keyBytes = abi.encodePacked(keyHash);\r\n        address[] memory approvedAddressList = approvedAddresses[abi.encodePacked(userAddress, keyBytes)];\r\n        for(uint i; i < approvedAddressList.length; i++){  // Iterates through the users approved addresses\r\n          if (approvedAddressList[i] == approvedAddress){ // Checks if the address exists in approvedAddresses\r\n            return(true);\r\n          }\r\n        }\r\n        return(false);\r\n      }\r\n      else{\r\n        revert ApprovedAddressNotFound(approvedAddress,userAddress,keyHash); // Provide Approved Address not found error instead of key not in use error to prevent leaking whether a user is using a certain key\r\n      }\r\n\r\n    }\r\n\r\n}",
  "sourcePath": "C:\\Users\\joelg\\Desktop\\react\\contracts\\SITApreferences2.sol",
  "compiler": {
    "name": "solc",
    "version": "0.8.13+commit.abaa5c0e.Emscripten.clang"
  },
  "schemaVersion": "3.4.4",
  "updatedAt": "2022-03-30T15:59:50.405Z",
  "networkType": "ethereum",
  "devdoc": {
    "errors": {
      "ApprovedAddressNotFound(address,address,string)": [
        {
          "params": {
            "approvedAddress": "Approved Address used.",
            "hashKey": "Hashed key used.",
            "userAddress": "Address used."
          }
        }
      ],
      "KeyNotInUse(address,string)": [
        {
          "params": {
            "hashKey": "Hashed key used.",
            "userAddress": "Address used."
          }
        }
      ],
      "PreferencesNotFound(address,string)": [
        {
          "params": {
            "hashKey": "Hashed key used.",
            "userAddress": "Address used."
          }
        }
      ]
    },
    "kind": "dev",
    "methods": {},
    "version": 1
  },
  "userdoc": {
    "errors": {
      "ApprovedAddressNotFound(address,address,string)": [
        {
          "notice": "This address was not found in approvedAddresses for this address + H(key) combination."
        }
      ],
      "KeyNotInUse(address,string)": [
        {
          "notice": "This address + H(key) combination was not found."
        }
      ],
      "PreferencesNotFound(address,string)": [
        {
          "notice": "Preferences not found for this address + H(key) combination."
        }
      ]
    },
    "kind": "user",
    "methods": {},
    "version": 1
  }
}