{
  "contractName": "SITApreferences2",
  "abi": [
    {
      "inputs": [],
      "stateMutability": "nonpayable",
      "type": "constructor"
    },
    {
      "inputs": [
        {
          "internalType": "address",
          "name": "approvedAddress",
          "type": "address"
        },
        {
          "internalType": "address",
          "name": "userAddress",
          "type": "address"
        },
        {
          "internalType": "string",
          "name": "hashKey",
          "type": "string"
        }
      ],
      "name": "ApprovedAddressAlreadyExists",
      "type": "error"
    },
    {
      "inputs": [
        {
          "internalType": "address",
          "name": "approvedAddress",
          "type": "address"
        },
        {
          "internalType": "address",
          "name": "userAddress",
          "type": "address"
        },
        {
          "internalType": "string",
          "name": "hashKey",
          "type": "string"
        }
      ],
      "name": "ApprovedAddressNotFound",
      "type": "error"
    },
    {
      "inputs": [
        {
          "internalType": "address",
          "name": "userAddress",
          "type": "address"
        },
        {
          "internalType": "string",
          "name": "hashKey",
          "type": "string"
        }
      ],
      "name": "CantRemoveOwnAddress",
      "type": "error"
    },
    {
      "inputs": [
        {
          "internalType": "address",
          "name": "userAddress",
          "type": "address"
        },
        {
          "internalType": "string",
          "name": "hashKey",
          "type": "string"
        }
      ],
      "name": "KeyNotInUse",
      "type": "error"
    },
    {
      "inputs": [
        {
          "internalType": "address",
          "name": "userAddress",
          "type": "address"
        },
        {
          "internalType": "string",
          "name": "hashKey",
          "type": "string"
        }
      ],
      "name": "PreferencesNotFound",
      "type": "error"
    },
    {
      "inputs": [
        {
          "internalType": "string",
          "name": "preferences",
          "type": "string"
        },
        {
          "internalType": "string",
          "name": "key",
          "type": "string"
        }
      ],
      "name": "setPreferences",
      "outputs": [
        {
          "internalType": "bool",
          "name": "success",
          "type": "bool"
        }
      ],
      "stateMutability": "nonpayable",
      "type": "function"
    },
    {
      "inputs": [
        {
          "internalType": "address",
          "name": "userAddress",
          "type": "address"
        },
        {
          "internalType": "string",
          "name": "key",
          "type": "string"
        }
      ],
      "name": "getPreferences",
      "outputs": [
        {
          "internalType": "string",
          "name": "preferences",
          "type": "string"
        }
      ],
      "stateMutability": "nonpayable",
      "type": "function"
    },
    {
      "inputs": [
        {
          "internalType": "string",
          "name": "keyHash",
          "type": "string"
        }
      ],
      "name": "deletePreferences",
      "outputs": [
        {
          "internalType": "bool",
          "name": "success",
          "type": "bool"
        }
      ],
      "stateMutability": "nonpayable",
      "type": "function"
    },
    {
      "inputs": [
        {
          "internalType": "address",
          "name": "approvedAddress",
          "type": "address"
        },
        {
          "internalType": "string",
          "name": "keyHash",
          "type": "string"
        }
      ],
      "name": "addApprovedAddress",
      "outputs": [
        {
          "internalType": "bool",
          "name": "success",
          "type": "bool"
        }
      ],
      "stateMutability": "nonpayable",
      "type": "function"
    },
    {
      "inputs": [
        {
          "internalType": "string",
          "name": "keyHash",
          "type": "string"
        }
      ],
      "name": "getApprovedAddresses",
      "outputs": [
        {
          "internalType": "address[]",
          "name": "addresses",
          "type": "address[]"
        }
      ],
      "stateMutability": "nonpayable",
      "type": "function"
    },
    {
      "inputs": [
        {
          "internalType": "address",
          "name": "removeAddress",
          "type": "address"
        },
        {
          "internalType": "string",
          "name": "keyHash",
          "type": "string"
        }
      ],
      "name": "removeApprovedAddress",
      "outputs": [
        {
          "internalType": "bool",
          "name": "success",
          "type": "bool"
        }
      ],
      "stateMutability": "nonpayable",
      "type": "function"
    }
  ],
  "bytecode": "0x608060405234801561001057600080fd5b50611b01806100206000396000f3fe608060405234801561001057600080fd5b50600436106100625760003560e01c806303a74a9c1461006757806315bd38161461009757806320103dde146100c75780634bd92bce146100f7578063c056047614610127578063ec53f6c214610157575b600080fd5b610081600480360381019061007c9190611432565b610187565b60405161008e91906114a9565b60405180910390f35b6100b160048036038101906100ac9190611432565b61059b565b6040516100be91906114a9565b60405180910390f35b6100e160048036038101906100dc91906114c4565b610710565b6040516100ee91906114a9565b60405180910390f35b610111600480360381019061010c9190611432565b61082e565b60405161011e91906115c4565b60405180910390f35b610141600480360381019061013c91906115e6565b6109c9565b60405161014e91906114a9565b60405180910390f35b610171600480360381019061016c91906115e6565b610cf1565b60405161017e91906116ed565b60405180910390f35b60003373ffffffffffffffffffffffffffffffffffffffff168373ffffffffffffffffffffffffffffffffffffffff16036101fb5733826040517fc0e65c200000000000000000000000000000000000000000000000000000000081526004016101f292919061171e565b60405180910390fd5b6102053383610e36565b156105565760008260405160200161021d919061178a565b6040516020818303038152906040529050600060023383604051602001610245929190611830565b6040516020818303038152906040526040516102619190611858565b90815260200160405180910390208054806020026020016040519081016040528092919081815260200182805480156102ef57602002820191906000526020600020905b8160009054906101000a900473ffffffffffffffffffffffffffffffffffffffff1673ffffffffffffffffffffffffffffffffffffffff16815260200190600101908083116102a5575b5050505050905060005b8151811015610514578573ffffffffffffffffffffffffffffffffffffffff1682828151811061032c5761032b61186f565b5b602002602001015173ffffffffffffffffffffffffffffffffffffffff16036105015760023384604051602001610364929190611830565b6040516020818303038152906040526040516103809190611858565b90815260200160405180910390206001835161039c91906118d7565b815481106103ad576103ac61186f565b5b9060005260206000200160009054906101000a900473ffffffffffffffffffffffffffffffffffffffff16600233856040516020016103ed929190611830565b6040516020818303038152906040526040516104099190611858565b908152602001604051809103902082815481106104295761042861186f565b5b9060005260206000200160006101000a81548173ffffffffffffffffffffffffffffffffffffffff021916908373ffffffffffffffffffffffffffffffffffffffff16021790555060023384604051602001610486929190611830565b6040516020818303038152906040526040516104a29190611858565b90815260200160405180910390208054806104c0576104bf61190b565b5b6001900381819060005260206000200160006101000a81549073ffffffffffffffffffffffffffffffffffffffff0219169055905560019350505050610595565b808061050c9061193a565b9150506102f9565b508433856040517f9752411700000000000000000000000000000000000000000000000000000000815260040161054d93929190611982565b60405180910390fd5b33826040517f34fa87f700000000000000000000000000000000000000000000000000000000815260040161058c92919061171e565b60405180910390fd5b92915050565b60006105a73383610e36565b156106cb576105b7338385610f20565b156105fd578233836040517fc7b560470000000000000000000000000000000000000000000000000000000081526004016105f493929190611982565b60405180910390fd5b600082604051602001610610919061178a565b604051602081830303815290604052905060023382604051602001610636929190611830565b6040516020818303038152906040526040516106529190611858565b9081526020016040518091039020849080600181540180825580915050600190039060005260206000200160009091909190916101000a81548173ffffffffffffffffffffffffffffffffffffffff021916908373ffffffffffffffffffffffffffffffffffffffff160217905550600191505061070a565b33826040517f34fa87f700000000000000000000000000000000000000000000000000000000815260040161070192919061171e565b60405180910390fd5b92915050565b600080151561071f3384610e36565b1515036107ab57600160003373ffffffffffffffffffffffffffffffffffffffff1673ffffffffffffffffffffffffffffffffffffffff1681526020019081526020016000208290806001815401808255809150506001900390600052602060002001600090919091909150908051906020019061079e9291906110e9565b506107a9338361059b565b505b6000826040516020016107be919061178a565b604051602081830303815290604052905083600033836040516020016107e5929190611830565b6040516020818303038152906040526040516108019190611858565b908152602001604051809103902090805190602001906108229291906110e9565b50600191505092915050565b6060600082604051602001610843919061178a565b604051602081830303815290604052905061085f848433610f20565b156109825761086e8484610e36565b156109435760008482604051602001610888929190611830565b6040516020818303038152906040526040516108a49190611858565b908152602001604051809103902080546108bd906119ef565b80601f01602080910402602001604051908101604052809291908181526020018280546108e9906119ef565b80156109365780601f1061090b57610100808354040283529160200191610936565b820191906000526020600020905b81548152906001019060200180831161091957829003601f168201915b50505050509150506109c3565b83836040517f6426971600000000000000000000000000000000000000000000000000000000815260040161097992919061171e565b60405180910390fd5b3384846040517f975241170000000000000000000000000000000000000000000000000000000081526004016109ba93929190611982565b60405180910390fd5b92915050565b600080826040516020016109dd919061178a565b604051602081830303815290604052905060023382604051602001610a03929190611830565b604051602081830303815290604052604051610a1f9190611858565b90815260200160405180910390206000610a39919061116f565b60003382604051602001610a4e929190611830565b604051602081830303815290604052604051610a6a9190611858565b90815260200160405180910390206000610a849190611190565b60005b600160003373ffffffffffffffffffffffffffffffffffffffff1673ffffffffffffffffffffffffffffffffffffffff16815260200190815260200160002080549050811015610cea578380519060200120600160003373ffffffffffffffffffffffffffffffffffffffff1673ffffffffffffffffffffffffffffffffffffffff1681526020019081526020016000208281548110610b2a57610b2961186f565b5b90600052602060002001604051610b419190611ab4565b604051809103902003610cd757600160003373ffffffffffffffffffffffffffffffffffffffff1673ffffffffffffffffffffffffffffffffffffffff16815260200190815260200160002060018060003373ffffffffffffffffffffffffffffffffffffffff1673ffffffffffffffffffffffffffffffffffffffff16815260200190815260200160002080549050610bdb91906118d7565b81548110610bec57610beb61186f565b5b90600052602060002001600160003373ffffffffffffffffffffffffffffffffffffffff1673ffffffffffffffffffffffffffffffffffffffff1681526020019081526020016000208281548110610c4757610c4661186f565b5b90600052602060002001908054610c5d906119ef565b610c689291906111d0565b50600160003373ffffffffffffffffffffffffffffffffffffffff1673ffffffffffffffffffffffffffffffffffffffff168152602001908152602001600020805480610cb857610cb761190b565b5b600190038181906000526020600020016000610cd49190611190565b90555b8080610ce29061193a565b915050610a87565b5050919050565b6060610cfd3383610e36565b15610df257600082604051602001610d15919061178a565b604051602081830303815290604052905060023382604051602001610d3b929190611830565b604051602081830303815290604052604051610d579190611858565b9081526020016040518091039020805480602002602001604051908101604052809291908181526020018280548015610de557602002820191906000526020600020905b8160009054906101000a900473ffffffffffffffffffffffffffffffffffffffff1673ffffffffffffffffffffffffffffffffffffffff1681526020019060010190808311610d9b575b5050505050915050610e31565b33826040517f34fa87f7000000000000000000000000000000000000000000000000000000008152600401610e2892919061171e565b60405180910390fd5b919050565b6000805b600160008573ffffffffffffffffffffffffffffffffffffffff1673ffffffffffffffffffffffffffffffffffffffff16815260200190815260200160002080549050811015610f19578280519060200120600160008673ffffffffffffffffffffffffffffffffffffffff1673ffffffffffffffffffffffffffffffffffffffff1681526020019081526020016000208281548110610edd57610edc61186f565b5b90600052602060002001604051610ef49190611ab4565b604051809103902003610f0657600191505b8080610f119061193a565b915050610e3a565b5092915050565b6000610f2c8484610e36565b156110a157600083604051602001610f44919061178a565b6040516020818303038152906040529050600060028683604051602001610f6c929190611830565b604051602081830303815290604052604051610f889190611858565b908152602001604051809103902080548060200260200160405190810160405280929190818152602001828054801561101657602002820191906000526020600020905b8160009054906101000a900473ffffffffffffffffffffffffffffffffffffffff1673ffffffffffffffffffffffffffffffffffffffff1681526020019060010190808311610fcc575b5050505050905060005b8151811015611095578473ffffffffffffffffffffffffffffffffffffffff168282815181106110535761105261186f565b5b602002602001015173ffffffffffffffffffffffffffffffffffffffff160361108257600193505050506110e2565b808061108d9061193a565b915050611020565b506000925050506110e2565b8184846040517f975241170000000000000000000000000000000000000000000000000000000081526004016110d993929190611982565b60405180910390fd5b9392505050565b8280546110f5906119ef565b90600052602060002090601f016020900481019282611117576000855561115e565b82601f1061113057805160ff191683800117855561115e565b8280016001018555821561115e579182015b8281111561115d578251825591602001919060010190611142565b5b50905061116b919061125d565b5090565b508054600082559060005260206000209081019061118d919061125d565b50565b50805461119c906119ef565b6000825580601f106111ae57506111cd565b601f0160209004906000526020600020908101906111cc919061125d565b5b50565b8280546111dc906119ef565b90600052602060002090601f0160209004810192826111fe576000855561124c565b82601f1061120f578054855561124c565b8280016001018555821561124c57600052602060002091601f016020900482015b8281111561124b578254825591600101919060010190611230565b5b509050611259919061125d565b5090565b5b8082111561127657600081600090555060010161125e565b5090565b6000604051905090565b600080fd5b600080fd5b600073ffffffffffffffffffffffffffffffffffffffff82169050919050565b60006112b98261128e565b9050919050565b6112c9816112ae565b81146112d457600080fd5b50565b6000813590506112e6816112c0565b92915050565b600080fd5b600080fd5b6000601f19601f8301169050919050565b7f4e487b7100000000000000000000000000000000000000000000000000000000600052604160045260246000fd5b61133f826112f6565b810181811067ffffffffffffffff8211171561135e5761135d611307565b5b80604052505050565b600061137161127a565b905061137d8282611336565b919050565b600067ffffffffffffffff82111561139d5761139c611307565b5b6113a6826112f6565b9050602081019050919050565b82818337600083830152505050565b60006113d56113d084611382565b611367565b9050828152602081018484840111156113f1576113f06112f1565b5b6113fc8482856113b3565b509392505050565b600082601f830112611419576114186112ec565b5b81356114298482602086016113c2565b91505092915050565b6000806040838503121561144957611448611284565b5b6000611457858286016112d7565b925050602083013567ffffffffffffffff81111561147857611477611289565b5b61148485828601611404565b9150509250929050565b60008115159050919050565b6114a38161148e565b82525050565b60006020820190506114be600083018461149a565b92915050565b600080604083850312156114db576114da611284565b5b600083013567ffffffffffffffff8111156114f9576114f8611289565b5b61150585828601611404565b925050602083013567ffffffffffffffff81111561152657611525611289565b5b61153285828601611404565b9150509250929050565b600081519050919050565b600082825260208201905092915050565b60005b8381101561157657808201518184015260208101905061155b565b83811115611585576000848401525b50505050565b60006115968261153c565b6115a08185611547565b93506115b0818560208601611558565b6115b9816112f6565b840191505092915050565b600060208201905081810360008301526115de818461158b565b905092915050565b6000602082840312156115fc576115fb611284565b5b600082013567ffffffffffffffff81111561161a57611619611289565b5b61162684828501611404565b91505092915050565b600081519050919050565b600082825260208201905092915050565b6000819050602082019050919050565b611664816112ae565b82525050565b6000611676838361165b565b60208301905092915050565b6000602082019050919050565b600061169a8261162f565b6116a4818561163a565b93506116af8361164b565b8060005b838110156116e05781516116c7888261166a565b97506116d283611682565b9250506001810190506116b3565b5085935050505092915050565b60006020820190508181036000830152611707818461168f565b905092915050565b611718816112ae565b82525050565b6000604082019050611733600083018561170f565b8181036020830152611745818461158b565b90509392505050565b600081905092915050565b60006117648261153c565b61176e818561174e565b935061177e818560208601611558565b80840191505092915050565b60006117968284611759565b915081905092915050565b60008160601b9050919050565b60006117b9826117a1565b9050919050565b60006117cb826117ae565b9050919050565b6117e36117de826112ae565b6117c0565b82525050565b600081519050919050565b600081905092915050565b600061180a826117e9565b61181481856117f4565b9350611824818560208601611558565b80840191505092915050565b600061183c82856117d2565b60148201915061184c82846117ff565b91508190509392505050565b600061186482846117ff565b915081905092915050565b7f4e487b7100000000000000000000000000000000000000000000000000000000600052603260045260246000fd5b6000819050919050565b7f4e487b7100000000000000000000000000000000000000000000000000000000600052601160045260246000fd5b60006118e28261189e565b91506118ed8361189e565b925082821015611900576118ff6118a8565b5b828203905092915050565b7f4e487b7100000000000000000000000000000000000000000000000000000000600052603160045260246000fd5b60006119458261189e565b91507fffffffffffffffffffffffffffffffffffffffffffffffffffffffffffffffff8203611977576119766118a8565b5b600182019050919050565b6000606082019050611997600083018661170f565b6119a4602083018561170f565b81810360408301526119b6818461158b565b9050949350505050565b7f4e487b7100000000000000000000000000000000000000000000000000000000600052602260045260246000fd5b60006002820490506001821680611a0757607f821691505b602082108103611a1a57611a196119c0565b5b50919050565b60008190508160005260206000209050919050565b60008154611a42816119ef565b611a4c81866117f4565b94506001821660008114611a675760018114611a7857611aab565b60ff19831686528186019350611aab565b611a8185611a20565b60005b83811015611aa357815481890152600182019150602081019050611a84565b838801955050505b50505092915050565b6000611ac08284611a35565b91508190509291505056fea2646970667358221220b5ca8519a85737505ac412a16c3cb5880fa1e874fb3cd3985e9c3facdf8666c564736f6c634300080d0033",
  "immutableReferences": {},
  "source": "pragma solidity ^0.8.4;\r\n \r\n// These custom errors unfortunately do not display in the Truffle Console\r\n// https://github.com/trufflesuite/truffle/issues/4123\r\n\r\n/// Preferences not found for this address + H(key) combination.\r\n/// @param userAddress Address used.\r\n/// @param hashKey Hashed key used.\r\nerror PreferencesNotFound(address userAddress, string hashKey);\r\n\r\n/// This address + H(key) combination was not found.\r\n/// @param userAddress Address used.\r\n/// @param hashKey Hashed key used.\r\nerror KeyNotInUse(address userAddress, string hashKey);\r\n\r\n/// This address was not found in approvedAddresses for this address + H(key) combination.\r\n/// @param approvedAddress Approved Address used.\r\n/// @param userAddress Address used.\r\n/// @param hashKey Hashed key used.\r\nerror ApprovedAddressNotFound(address approvedAddress,address userAddress, string hashKey);\r\n\r\n/// Can't remove your own address from approved addresses.\r\n/// @param userAddress Your address.\r\n/// @param hashKey Hashed key used.\r\nerror CantRemoveOwnAddress(address userAddress, string hashKey);\r\n\r\n/// This address already exists approvedAddresses for this address + H(key) combination.\r\n/// @param approvedAddress Approved Address used.\r\n/// @param userAddress Address used.\r\n/// @param hashKey Hashed key used.\r\nerror ApprovedAddressAlreadyExists(address approvedAddress,address userAddress, string hashKey);\r\n \r\ncontract SITApreferences2{\r\n    mapping(bytes => string) private userpreferences; // Mapping bytes (address + key) as you cant use struct or array as mapping keys\r\n    // Need to use bytes to be able to concatenate the address and key, should change later to a particular size bytes when we know address and key combined size\r\n\r\n    mapping(address => string[]) private usedKeys; // String array of the H(key) in use for a user\r\n\r\n    mapping(bytes => address[]) private approvedAddresses; // Mapping linking address + H(key) to approved addresses\r\n\r\n    constructor(){}\r\n\r\n    function setPreferences(string memory preferences, string memory key) public returns(bool success){\r\n      // Require statement here to ensure all dimensions are 0-4\r\n\r\n      if (keyInUse(msg.sender,key) == false){ // If the key isn't already in use it needs to be added to the array in the usedKey mapping\r\n        usedKeys[msg.sender].push(key);\r\n        addApprovedAddress(msg.sender, key); // Adds the user's address to approved addresses the first time a key is used.\r\n      }\r\n\r\n      bytes memory keyBytes = abi.encodePacked(key); // Convert string parameter for the secret key to bytes\r\n      userpreferences[abi.encodePacked(msg.sender, keyBytes)] = preferences; // Store the preference array mapped under address + secret key as the mapping key\r\n      return(true); // Need to return upon success of setting, but need require statement\r\n    }\r\n\r\n    function getPreferences(address userAddress,string memory key) public returns(string memory preferences){\r\n      bytes memory keyBytes = abi.encodePacked(key); // Convert string parameter for the secret key to bytes\r\n\r\n      if(approvedAddressExists(userAddress, key, msg.sender)){\r\n        if(keyInUse(userAddress, key)){\r\n          return(userpreferences[abi.encodePacked(userAddress, keyBytes)]);\r\n        }\r\n        else{\r\n          revert PreferencesNotFound(userAddress, key);\r\n        }\r\n      }\r\n      else{\r\n        revert ApprovedAddressNotFound(msg.sender,userAddress,key);\r\n      }\r\n    }\r\n\r\n    function deletePreferences(string memory keyHash) public returns(bool success){\r\n      bytes memory keyBytes = abi.encodePacked(keyHash); // Convert string parameter for the secret key to bytes\r\n      // Delete just leaves all the entries under these keys as the default ('' for strings, and empty arrays)\r\n      // getPreferences, getApprovedAddresses etc don't work as the key is no longer in use\r\n      delete approvedAddresses[abi.encodePacked(msg.sender, keyBytes)];\r\n      delete userpreferences[abi.encodePacked(msg.sender, keyBytes)]; \r\n\r\n      for(uint i; i < usedKeys[msg.sender].length; i++){ // Iterate through the user's keys\r\n        if (keccak256(bytes(usedKeys[msg.sender][i])) == keccak256(bytes(keyHash))){ // Compare the key in usedKeys array and the key the user has entered\r\n          usedKeys[msg.sender][i] = usedKeys[msg.sender][(usedKeys[msg.sender].length) - 1];\r\n          usedKeys[msg.sender].pop(); \r\n        }\r\n      }\r\n    }\r\n\r\n\r\n\r\n    function keyInUse(address userAddress, string memory keyHash) private returns(bool keyExists){ // Helper function to check if a key already exists in keysUsed\r\n      keyExists = false; // Boolean value for whether the key exists yet or not\r\n\r\n      for(uint i; i < usedKeys[userAddress].length; i++){ // Iterate through the user's keys\r\n        if (keccak256(bytes(usedKeys[userAddress][i])) == keccak256(bytes(keyHash))){ // Compare the key in usedKeys array and the key the user has entered\r\n          keyExists = true; \r\n        }\r\n      }\r\n\r\n      return(keyExists);\r\n    }\r\n\r\n    function addApprovedAddress(address approvedAddress, string memory keyHash) public returns(bool success){\r\n      if(keyInUse(msg.sender,keyHash)){\r\n        if (approvedAddressExists(msg.sender, keyHash,approvedAddress)){\r\n          revert ApprovedAddressAlreadyExists(approvedAddress,msg.sender,keyHash);\r\n        }\r\n        bytes memory keyBytes = abi.encodePacked(keyHash);\r\n        approvedAddresses[abi.encodePacked(msg.sender, keyBytes)].push(approvedAddress);\r\n        return (true);\r\n      }\r\n      else{\r\n        revert KeyNotInUse(msg.sender, keyHash);\r\n      }\r\n\r\n    }\r\n\r\n    function getApprovedAddresses(string memory keyHash) public returns(address[] memory addresses){\r\n       if(keyInUse(msg.sender,keyHash)){\r\n        bytes memory keyBytes = abi.encodePacked(keyHash);\r\n        return(approvedAddresses[abi.encodePacked(msg.sender, keyBytes)]);\r\n       }\r\n       else{\r\n         revert KeyNotInUse(msg.sender, keyHash);\r\n       }\r\n    }\r\n\r\n    function removeApprovedAddress(address removeAddress, string memory keyHash) public returns (bool success){ \r\n      if(removeAddress == msg.sender){\r\n        revert CantRemoveOwnAddress(msg.sender, keyHash);\r\n      }\r\n      if(keyInUse(msg.sender,keyHash)){ // Don't waste computing power (and thus Ethereum) looping through if the key isn't being used\r\n        bytes memory keyBytes = abi.encodePacked(keyHash);\r\n        address[] memory approvedAddressList = approvedAddresses[abi.encodePacked(msg.sender, keyBytes)]; // Gets the list to reduce the complexity of the for loop\r\n        for(uint i; i < approvedAddressList.length; i++){  // Iterates through the users approved addresses\r\n          if (approvedAddressList[i] == removeAddress){ // Attempts to find the address to be removed\r\n            approvedAddresses[abi.encodePacked(msg.sender, keyBytes)][i] = approvedAddresses[abi.encodePacked(msg.sender, keyBytes)][approvedAddressList.length - 1]; // Sets the index of address to be removed to be equal to the last address in the array\r\n            approvedAddresses[abi.encodePacked(msg.sender, keyBytes)].pop(); // Pops the last address in the array, the last address now occupies [i] \r\n            return (true);\r\n          }\r\n        }\r\n        revert ApprovedAddressNotFound(removeAddress,msg.sender,keyHash);\r\n      }\r\n      else{\r\n        revert KeyNotInUse(msg.sender, keyHash);\r\n      }\r\n      \r\n    }\r\n\r\n    function approvedAddressExists(address userAddress, string memory keyHash, address approvedAddress) private returns (bool success){ // Very similar code to remove but not sure remove could use this\r\n      if(keyInUse(userAddress,keyHash)){ // Don't waste computing power (and thus Ethereum) looping through if the key isn't being used\r\n        bytes memory keyBytes = abi.encodePacked(keyHash);\r\n        address[] memory approvedAddressList = approvedAddresses[abi.encodePacked(userAddress, keyBytes)];\r\n        for(uint i; i < approvedAddressList.length; i++){  // Iterates through the users approved addresses\r\n          if (approvedAddressList[i] == approvedAddress){ // Checks if the address exists in approvedAddresses\r\n            return(true);\r\n          }\r\n        }\r\n        return(false);\r\n      }\r\n      else{\r\n        revert ApprovedAddressNotFound(approvedAddress,userAddress,keyHash); // Provide Approved Address not found error instead of key not in use error to prevent leaking whether a user is using a certain key\r\n      }\r\n\r\n    }\r\n\r\n}",
  "sourcePath": "C:\\Users\\joelg\\Desktop\\react\\contracts\\SITApreferences2.sol",
  "compiler": {
    "name": "solc",
    "version": "0.8.13+commit.abaa5c0e.Emscripten.clang"
  },
  "schemaVersion": "3.4.4",
  "updatedAt": "2022-03-31T12:33:52.295Z",
  "networkType": "ethereum",
  "devdoc": {
    "errors": {
      "ApprovedAddressAlreadyExists(address,address,string)": [
        {
          "params": {
            "approvedAddress": "Approved Address used.",
            "hashKey": "Hashed key used.",
            "userAddress": "Address used."
          }
        }
      ],
      "ApprovedAddressNotFound(address,address,string)": [
        {
          "params": {
            "approvedAddress": "Approved Address used.",
            "hashKey": "Hashed key used.",
            "userAddress": "Address used."
          }
        }
      ],
      "CantRemoveOwnAddress(address,string)": [
        {
          "params": {
            "hashKey": "Hashed key used.",
            "userAddress": "Your address."
          }
        }
      ],
      "KeyNotInUse(address,string)": [
        {
          "params": {
            "hashKey": "Hashed key used.",
            "userAddress": "Address used."
          }
        }
      ],
      "PreferencesNotFound(address,string)": [
        {
          "params": {
            "hashKey": "Hashed key used.",
            "userAddress": "Address used."
          }
        }
      ]
    },
    "kind": "dev",
    "methods": {},
    "version": 1
  },
  "userdoc": {
    "errors": {
      "ApprovedAddressAlreadyExists(address,address,string)": [
        {
          "notice": "This address already exists approvedAddresses for this address + H(key) combination."
        }
      ],
      "ApprovedAddressNotFound(address,address,string)": [
        {
          "notice": "This address was not found in approvedAddresses for this address + H(key) combination."
        }
      ],
      "CantRemoveOwnAddress(address,string)": [
        {
          "notice": "Can't remove your own address from approved addresses."
        }
      ],
      "KeyNotInUse(address,string)": [
        {
          "notice": "This address + H(key) combination was not found."
        }
      ],
      "PreferencesNotFound(address,string)": [
        {
          "notice": "Preferences not found for this address + H(key) combination."
        }
      ]
    },
    "kind": "user",
    "methods": {},
    "version": 1
  }
}