{
  "contractName": "SITApreferences2",
  "abi": [
    {
      "inputs": [],
      "stateMutability": "nonpayable",
      "type": "constructor"
    },
    {
      "inputs": [
        {
          "internalType": "address",
          "name": "approvedAddress",
          "type": "address"
        },
        {
          "internalType": "address",
          "name": "userAddress",
          "type": "address"
        },
        {
          "internalType": "string",
          "name": "hashKey",
          "type": "string"
        }
      ],
      "name": "ApprovedAddressNotFound",
      "type": "error"
    },
    {
      "inputs": [
        {
          "internalType": "address",
          "name": "userAddress",
          "type": "address"
        },
        {
          "internalType": "string",
          "name": "hashKey",
          "type": "string"
        }
      ],
      "name": "KeyNotInUse",
      "type": "error"
    },
    {
      "inputs": [
        {
          "internalType": "address",
          "name": "userAddress",
          "type": "address"
        },
        {
          "internalType": "string",
          "name": "hashKey",
          "type": "string"
        }
      ],
      "name": "PreferencesNotFound",
      "type": "error"
    },
    {
      "inputs": [
        {
          "internalType": "string",
          "name": "preferences",
          "type": "string"
        },
        {
          "internalType": "string",
          "name": "key",
          "type": "string"
        }
      ],
      "name": "setPreferences",
      "outputs": [
        {
          "internalType": "bool",
          "name": "success",
          "type": "bool"
        }
      ],
      "stateMutability": "nonpayable",
      "type": "function"
    },
    {
      "inputs": [
        {
          "internalType": "address",
          "name": "userAddress",
          "type": "address"
        },
        {
          "internalType": "string",
          "name": "key",
          "type": "string"
        }
      ],
      "name": "getPreferences",
      "outputs": [
        {
          "internalType": "string",
          "name": "preferences",
          "type": "string"
        }
      ],
      "stateMutability": "nonpayable",
      "type": "function"
    },
    {
      "inputs": [
        {
          "internalType": "address",
          "name": "approvedAddress",
          "type": "address"
        },
        {
          "internalType": "string",
          "name": "keyHash",
          "type": "string"
        }
      ],
      "name": "addApprovedAddress",
      "outputs": [
        {
          "internalType": "bool",
          "name": "success",
          "type": "bool"
        }
      ],
      "stateMutability": "nonpayable",
      "type": "function"
    },
    {
      "inputs": [
        {
          "internalType": "string",
          "name": "keyHash",
          "type": "string"
        }
      ],
      "name": "getApprovedAddresses",
      "outputs": [
        {
          "internalType": "address[]",
          "name": "addresses",
          "type": "address[]"
        }
      ],
      "stateMutability": "nonpayable",
      "type": "function"
    },
    {
      "inputs": [
        {
          "internalType": "address",
          "name": "removeAddress",
          "type": "address"
        },
        {
          "internalType": "string",
          "name": "keyHash",
          "type": "string"
        }
      ],
      "name": "removeApprovedAddress",
      "outputs": [
        {
          "internalType": "bool",
          "name": "success",
          "type": "bool"
        }
      ],
      "stateMutability": "nonpayable",
      "type": "function"
    }
  ],
  "bytecode": "0x608060405234801561001057600080fd5b50611399806100206000396000f3fe608060405234801561001057600080fd5b50600436106100575760003560e01c806303a74a9c1461005c57806315bd38161461008c57806320103dde146100bc5780634bd92bce146100ec578063ec53f6c21461011c575b600080fd5b61007660048036038101906100719190610cca565b61014c565b6040516100839190610d41565b60405180910390f35b6100a660048036038101906100a19190610cca565b6104ee565b6040516100b39190610d41565b60405180910390f35b6100d660048036038101906100d19190610d5c565b6105d8565b6040516100e39190610d41565b60405180910390f35b61010660048036038101906101019190610cca565b6106f6565b6040516101139190610e5c565b60405180910390f35b61013660048036038101906101319190610e7e565b610840565b6040516101439190610f85565b60405180910390f35b60006101583383610985565b156104a9576000826040516020016101709190610fe3565b6040516020818303038152906040529050600060023383604051602001610198929190611089565b6040516020818303038152906040526040516101b491906110b1565b908152602001604051809103902080548060200260200160405190810160405280929190818152602001828054801561024257602002820191906000526020600020905b8160009054906101000a900473ffffffffffffffffffffffffffffffffffffffff1673ffffffffffffffffffffffffffffffffffffffff16815260200190600101908083116101f8575b5050505050905060005b8151811015610467578573ffffffffffffffffffffffffffffffffffffffff1682828151811061027f5761027e6110c8565b5b602002602001015173ffffffffffffffffffffffffffffffffffffffff160361045457600233846040516020016102b7929190611089565b6040516020818303038152906040526040516102d391906110b1565b9081526020016040518091039020600183516102ef9190611130565b81548110610300576102ff6110c8565b5b9060005260206000200160009054906101000a900473ffffffffffffffffffffffffffffffffffffffff1660023385604051602001610340929190611089565b60405160208183030381529060405260405161035c91906110b1565b9081526020016040518091039020828154811061037c5761037b6110c8565b5b9060005260206000200160006101000a81548173ffffffffffffffffffffffffffffffffffffffff021916908373ffffffffffffffffffffffffffffffffffffffff160217905550600233846040516020016103d9929190611089565b6040516020818303038152906040526040516103f591906110b1565b908152602001604051809103902080548061041357610412611164565b5b6001900381819060005260206000200160006101000a81549073ffffffffffffffffffffffffffffffffffffffff02191690559055600193505050506104e8565b808061045f90611193565b91505061024c565b508433856040517f975241170000000000000000000000000000000000000000000000000000000081526004016104a0939291906111ea565b60405180910390fd5b33826040517f34fa87f70000000000000000000000000000000000000000000000000000000081526004016104df929190611228565b60405180910390fd5b92915050565b60006104fa3383610985565b156105cd576000826040516020016105129190610fe3565b604051602081830303815290604052905060023382604051602001610538929190611089565b60405160208183030381529060405260405161055491906110b1565b9081526020016040518091039020849080600181540180825580915050600190039060005260206000200160009091909190916101000a81548173ffffffffffffffffffffffffffffffffffffffff021916908373ffffffffffffffffffffffffffffffffffffffff16021790555060019150506105d2565b600090505b92915050565b60008015156105e73384610985565b15150361067357600160003373ffffffffffffffffffffffffffffffffffffffff1673ffffffffffffffffffffffffffffffffffffffff16815260200190815260200160002082908060018154018082558091505060019003906000526020600020016000909190919091509080519060200190610666929190610a6f565b5061067133836104ee565b505b6000826040516020016106869190610fe3565b604051602081830303815290604052905083600033836040516020016106ad929190611089565b6040516020818303038152906040526040516106c991906110b1565b908152602001604051809103902090805190602001906106ea929190610a6f565b50600191505092915050565b606060008260405160200161070b9190610fe3565b60405160208183030381529060405290506107268484610985565b156107fb5760008482604051602001610740929190611089565b60405160208183030381529060405260405161075c91906110b1565b9081526020016040518091039020805461077590611287565b80601f01602080910402602001604051908101604052809291908181526020018280546107a190611287565b80156107ee5780601f106107c3576101008083540402835291602001916107ee565b820191906000526020600020905b8154815290600101906020018083116107d157829003601f168201915b505050505091505061083a565b83836040517f64269716000000000000000000000000000000000000000000000000000000008152600401610831929190611228565b60405180910390fd5b92915050565b606061084c3383610985565b15610941576000826040516020016108649190610fe3565b60405160208183030381529060405290506002338260405160200161088a929190611089565b6040516020818303038152906040526040516108a691906110b1565b908152602001604051809103902080548060200260200160405190810160405280929190818152602001828054801561093457602002820191906000526020600020905b8160009054906101000a900473ffffffffffffffffffffffffffffffffffffffff1673ffffffffffffffffffffffffffffffffffffffff16815260200190600101908083116108ea575b5050505050915050610980565b33826040517f34fa87f7000000000000000000000000000000000000000000000000000000008152600401610977929190611228565b60405180910390fd5b919050565b6000805b600160008573ffffffffffffffffffffffffffffffffffffffff1673ffffffffffffffffffffffffffffffffffffffff16815260200190815260200160002080549050811015610a68578280519060200120600160008673ffffffffffffffffffffffffffffffffffffffff1673ffffffffffffffffffffffffffffffffffffffff1681526020019081526020016000208281548110610a2c57610a2b6110c8565b5b90600052602060002001604051610a43919061134c565b604051809103902003610a5557600191505b8080610a6090611193565b915050610989565b5092915050565b828054610a7b90611287565b90600052602060002090601f016020900481019282610a9d5760008555610ae4565b82601f10610ab657805160ff1916838001178555610ae4565b82800160010185558215610ae4579182015b82811115610ae3578251825591602001919060010190610ac8565b5b509050610af19190610af5565b5090565b5b80821115610b0e576000816000905550600101610af6565b5090565b6000604051905090565b600080fd5b600080fd5b600073ffffffffffffffffffffffffffffffffffffffff82169050919050565b6000610b5182610b26565b9050919050565b610b6181610b46565b8114610b6c57600080fd5b50565b600081359050610b7e81610b58565b92915050565b600080fd5b600080fd5b6000601f19601f8301169050919050565b7f4e487b7100000000000000000000000000000000000000000000000000000000600052604160045260246000fd5b610bd782610b8e565b810181811067ffffffffffffffff82111715610bf657610bf5610b9f565b5b80604052505050565b6000610c09610b12565b9050610c158282610bce565b919050565b600067ffffffffffffffff821115610c3557610c34610b9f565b5b610c3e82610b8e565b9050602081019050919050565b82818337600083830152505050565b6000610c6d610c6884610c1a565b610bff565b905082815260208101848484011115610c8957610c88610b89565b5b610c94848285610c4b565b509392505050565b600082601f830112610cb157610cb0610b84565b5b8135610cc1848260208601610c5a565b91505092915050565b60008060408385031215610ce157610ce0610b1c565b5b6000610cef85828601610b6f565b925050602083013567ffffffffffffffff811115610d1057610d0f610b21565b5b610d1c85828601610c9c565b9150509250929050565b60008115159050919050565b610d3b81610d26565b82525050565b6000602082019050610d566000830184610d32565b92915050565b60008060408385031215610d7357610d72610b1c565b5b600083013567ffffffffffffffff811115610d9157610d90610b21565b5b610d9d85828601610c9c565b925050602083013567ffffffffffffffff811115610dbe57610dbd610b21565b5b610dca85828601610c9c565b9150509250929050565b600081519050919050565b600082825260208201905092915050565b60005b83811015610e0e578082015181840152602081019050610df3565b83811115610e1d576000848401525b50505050565b6000610e2e82610dd4565b610e388185610ddf565b9350610e48818560208601610df0565b610e5181610b8e565b840191505092915050565b60006020820190508181036000830152610e768184610e23565b905092915050565b600060208284031215610e9457610e93610b1c565b5b600082013567ffffffffffffffff811115610eb257610eb1610b21565b5b610ebe84828501610c9c565b91505092915050565b600081519050919050565b600082825260208201905092915050565b6000819050602082019050919050565b610efc81610b46565b82525050565b6000610f0e8383610ef3565b60208301905092915050565b6000602082019050919050565b6000610f3282610ec7565b610f3c8185610ed2565b9350610f4783610ee3565b8060005b83811015610f78578151610f5f8882610f02565b9750610f6a83610f1a565b925050600181019050610f4b565b5085935050505092915050565b60006020820190508181036000830152610f9f8184610f27565b905092915050565b600081905092915050565b6000610fbd82610dd4565b610fc78185610fa7565b9350610fd7818560208601610df0565b80840191505092915050565b6000610fef8284610fb2565b915081905092915050565b60008160601b9050919050565b600061101282610ffa565b9050919050565b600061102482611007565b9050919050565b61103c61103782610b46565b611019565b82525050565b600081519050919050565b600081905092915050565b600061106382611042565b61106d818561104d565b935061107d818560208601610df0565b80840191505092915050565b6000611095828561102b565b6014820191506110a58284611058565b91508190509392505050565b60006110bd8284611058565b915081905092915050565b7f4e487b7100000000000000000000000000000000000000000000000000000000600052603260045260246000fd5b6000819050919050565b7f4e487b7100000000000000000000000000000000000000000000000000000000600052601160045260246000fd5b600061113b826110f7565b9150611146836110f7565b92508282101561115957611158611101565b5b828203905092915050565b7f4e487b7100000000000000000000000000000000000000000000000000000000600052603160045260246000fd5b600061119e826110f7565b91507fffffffffffffffffffffffffffffffffffffffffffffffffffffffffffffffff82036111d0576111cf611101565b5b600182019050919050565b6111e481610b46565b82525050565b60006060820190506111ff60008301866111db565b61120c60208301856111db565b818103604083015261121e8184610e23565b9050949350505050565b600060408201905061123d60008301856111db565b818103602083015261124f8184610e23565b90509392505050565b7f4e487b7100000000000000000000000000000000000000000000000000000000600052602260045260246000fd5b6000600282049050600182168061129f57607f821691505b6020821081036112b2576112b1611258565b5b50919050565b60008190508160005260206000209050919050565b600081546112da81611287565b6112e4818661104d565b945060018216600081146112ff576001811461131057611343565b60ff19831686528186019350611343565b611319856112b8565b60005b8381101561133b5781548189015260018201915060208101905061131c565b838801955050505b50505092915050565b600061135882846112cd565b91508190509291505056fea2646970667358221220964c0e13358e3b7567dc9372658f3c7b1e11c1736dea5a76776b681f15f0aa3e64736f6c634300080d0033",
  "immutableReferences": {},
  "source": "pragma solidity ^0.8.4;\r\n \r\n// These custom errors unfortunately do not display in the Truffle Console\r\n// https://github.com/trufflesuite/truffle/issues/4123\r\n\r\n/// Preferences not found for this address + H(key) combination.\r\n/// @param userAddress Address used.\r\n/// @param hashKey Hashed key used.\r\nerror PreferencesNotFound(address userAddress, string hashKey);\r\n\r\n/// This address + H(key) combination was not found.\r\n/// @param userAddress Address used.\r\n/// @param hashKey Hashed key used.\r\nerror KeyNotInUse(address userAddress, string hashKey);\r\n\r\n/// This address was not found in approvedAddresses for this address + H(key) combination.\r\n/// @param approvedAddress Approved Address.\r\n/// @param userAddress Address used.\r\n/// @param hashKey Hashed key used.\r\nerror ApprovedAddressNotFound(address approvedAddress,address userAddress, string hashKey);\r\n \r\ncontract SITApreferences2{\r\n    mapping(bytes => string) private userpreferences; // Mapping bytes (address + key) as you cant use struct or array as mapping keys\r\n    // Need to use bytes to be able to concatenate the address and key, should change later to a particular size bytes when we know address and key combined size\r\n\r\n    mapping(address => string[]) private usedKeys; // String array of the H(key) in use for a user\r\n\r\n    mapping(bytes => address[]) private approvedAddresses; // Mapping linking address + H(key) to approved addresses\r\n\r\n    constructor(){}\r\n\r\n    function setPreferences(string memory preferences, string memory key) public returns(bool success){\r\n      // Require statement here to ensure all dimensions are 0-4\r\n\r\n      if (keyInUse(msg.sender,key) == false){ // If the key isn't already in use it needs to be added to the array in the usedKey mapping\r\n        usedKeys[msg.sender].push(key);\r\n        addApprovedAddress(msg.sender, key); // Adds the user's address to approved addresses the first time a key is used.\r\n      }\r\n\r\n      bytes memory keyBytes = abi.encodePacked(key); // Convert string parameter for the secret key to bytes\r\n      userpreferences[abi.encodePacked(msg.sender, keyBytes)] = preferences; // Store the preference array mapped under address + secret key as the mapping key\r\n      return(true); // Need to return upon success of setting, but need require statement\r\n    }\r\n\r\n    function getPreferences(address userAddress,string memory key) public returns(string memory preferences){\r\n      bytes memory keyBytes = abi.encodePacked(key); // Convert string parameter for the secret key to bytes\r\n\r\n      if(keyInUse(userAddress, key)){\r\n        return(userpreferences[abi.encodePacked(userAddress, keyBytes)]);\r\n      }\r\n      else{\r\n        revert PreferencesNotFound(userAddress, key);\r\n      }\r\n\r\n    }\r\n\r\n    function keyInUse(address userAddress, string memory keyHash) private returns(bool keyExists){ // Helper function to check if a key already exists in keysUsed\r\n      keyExists = false; // Boolean value for whether the key exists yet or not\r\n\r\n      for(uint i; i < usedKeys[userAddress].length; i++){ // Iterate through the user's keys\r\n        if (keccak256(bytes(usedKeys[userAddress][i])) == keccak256(bytes(keyHash))){ // Compare the key in usedKeys array and the key the user has entered\r\n          keyExists = true; \r\n        }\r\n      }\r\n\r\n      return(keyExists);\r\n    }\r\n\r\n    function addApprovedAddress(address approvedAddress, string memory keyHash) public returns(bool success){\r\n      if(keyInUse(msg.sender,keyHash)){\r\n        bytes memory keyBytes = abi.encodePacked(keyHash);\r\n        approvedAddresses[abi.encodePacked(msg.sender, keyBytes)].push(approvedAddress);\r\n        return (true);\r\n      }\r\n      else{\r\n        return (false);\r\n      }\r\n\r\n    }\r\n\r\n    function getApprovedAddresses(string memory keyHash) public returns(address[] memory addresses){\r\n       if(keyInUse(msg.sender,keyHash)){\r\n        bytes memory keyBytes = abi.encodePacked(keyHash);\r\n        return(approvedAddresses[abi.encodePacked(msg.sender, keyBytes)]);\r\n       }\r\n       else{\r\n         revert KeyNotInUse(msg.sender, keyHash);\r\n       }\r\n    }\r\n\r\n    function removeApprovedAddress(address removeAddress, string memory keyHash) public returns (bool success){ // This should probably be converted to a helper function to prevent duplicate values, assuming hash-sets don't exist in Solidity\r\n      if(keyInUse(msg.sender,keyHash)){\r\n        bytes memory keyBytes = abi.encodePacked(keyHash);\r\n        address[] memory approvedAddressList = approvedAddresses[abi.encodePacked(msg.sender, keyBytes)]; // Gets the list to reduce the complexity of the for loop\r\n        for(uint i; i < approvedAddressList.length; i++){  // Iterates through the users approved addresses\r\n          if (approvedAddressList[i] == removeAddress){ // Attempts to find the address to be removed\r\n            approvedAddresses[abi.encodePacked(msg.sender, keyBytes)][i] = approvedAddresses[abi.encodePacked(msg.sender, keyBytes)][approvedAddressList.length - 1]; // Sets the index of address to be removed to be equal to the last address in the array\r\n            approvedAddresses[abi.encodePacked(msg.sender, keyBytes)].pop(); // Pops the last address in the array, the last address now occupies [i] \r\n            return (true);\r\n          }\r\n        }\r\n        revert ApprovedAddressNotFound(removeAddress,msg.sender,keyHash);\r\n      }\r\n      else{\r\n        revert KeyNotInUse(msg.sender, keyHash); // I think we're getting this revert even though key is in use?\r\n      }\r\n      \r\n    }\r\n\r\n}",
  "sourcePath": "C:\\Users\\joelg\\Desktop\\react\\contracts\\SITApreferences2.sol",
  "compiler": {
    "name": "solc",
    "version": "0.8.13+commit.abaa5c0e.Emscripten.clang"
  },
  "schemaVersion": "3.4.4",
  "updatedAt": "2022-03-30T13:21:53.325Z",
  "networkType": "ethereum",
  "devdoc": {
    "errors": {
      "ApprovedAddressNotFound(address,address,string)": [
        {
          "params": {
            "approvedAddress": "Approved Address.",
            "hashKey": "Hashed key used.",
            "userAddress": "Address used."
          }
        }
      ],
      "KeyNotInUse(address,string)": [
        {
          "params": {
            "hashKey": "Hashed key used.",
            "userAddress": "Address used."
          }
        }
      ],
      "PreferencesNotFound(address,string)": [
        {
          "params": {
            "hashKey": "Hashed key used.",
            "userAddress": "Address used."
          }
        }
      ]
    },
    "kind": "dev",
    "methods": {},
    "version": 1
  },
  "userdoc": {
    "errors": {
      "ApprovedAddressNotFound(address,address,string)": [
        {
          "notice": "This address was not found in approvedAddresses for this address + H(key) combination."
        }
      ],
      "KeyNotInUse(address,string)": [
        {
          "notice": "This address + H(key) combination was not found."
        }
      ],
      "PreferencesNotFound(address,string)": [
        {
          "notice": "Preferences not found for this address + H(key) combination."
        }
      ]
    },
    "kind": "user",
    "methods": {},
    "version": 1
  }
}